:020000040000FA
:060000000212790207E282
:03002B0002122896
:03003300020E7545
:0300430002109612
:03004B00020F6B36
:030053000207346D
:03005B00020F7A17
:03006300020F8603
:03006B00020E5B27
:03007B00020DE88B
:1000830002077E010101010503010F10FEFF0300BA
:100093000300030003000300030003000300030045
:1000A30005000A00140028004F009E000000D61926
:1000B300D619D619D61998189218D6198D27000073
:1000C3000000B328000000000C0000000C00010039
:1000D30000261B000000000000B61B00000000000B
:1000E3000000003200CC05FF0102004612000000B0
:1000F300B91264000202000004000501071E020594
:100103001E020A03B80B803E01FF22020206060606
:1001130006060014141414140006F304353F0000FB
:1001230080BF0000803F1872313F2292D43EDD9B96
:100133002A3F04000040D85BDE3E30313233343591
:100143003637383941424344454600286E756C6C56
:1001530020706F696E746572290030313233343523
:1001630036373839616263646566003F3F3F00F9A3
:10017300021550B743BA510000204100E7DB2E00BF
:1001830000A04010000000080000000A0000001258
:10019300129860461212C5603DE9687008F618F6B9
:1001A30018F618F622748067F71201C60909097454
:1001B3008067F7221212C5601D1212987005191973
:1001C30019801A121118701F12112DC37003E667DC
:1001D3003319191940071818182208080874FFF66C
:1001E30018F618F618F62212112D60171212EC7079
:1001F3002192F01212F67019501720F01408080813
:10020300090909E7F61819E7F61819E7F61819E7BF
:10021300F6221212F660E6E869701F0808E62480E9
:10022300F608E436F618547FB47F0CE65480600772
:10023300F6E418F618F622181822E9C6CC08C6CD3B
:1002430008C6CE08C6CFC0E0E8C0E0EAC0E0EBC015
:10025300E009E9F809E7FA09E7FBE6F918E6F8C364
:10026300EC98ED99EE9AEBC2E7F5F0EFC2E795F063
:10027300500E600CEBCFFBEACEFAE9CDF9E8CCF8EF
:10028300EAA2E7D2E7FAEB33FB13F5F0EEA2E7D2EB
:10029300E7FEEF33FFC5F013A2E730E601B313C562
:1002A300F0C3C0E0C0F07F00C39BFB605B941860A9
:1002B3000C401AD0E023F9D0E0F80203958AF0E964
:1002C300486003D2F0E4AFF0FAF9F8803BEB30E496
:1002D3000D89F0EA6003D2F0E4AFF0F9CAF8EB302D
:1002E300E30D88F0EF6002D2F0AFF0E4CAC9F8EB97
:1002F30054076014FBC3EA13FAE913F9E813F8EFA0
:10030300135002D2E0FFDBEDD0E0C0E030E739C3A9
:10031300E49FFFF5F0EC98FC42F0ED99FD42F0EE1E
:100323009AFE42F0D0E0F9D0E0F8E5F0607AE923F4
:10033300F9EE20E742D8028067C3EF33FFEC33FCCA
:10034300ED33FDEE33FE80EAEC28FCED39FDEE3AA9
:10035300FED0E023F9D0E0F84002801BC3EE13FE89
:10036300ED13FDEC13FCEF135002D2E0FF08B800CD
:10037300067F7F74FF802EEF3350178CF020F0023E
:1003830060100CBC000C0DBD00080EBE000408E894
:1003930060DFE933E813FFEE2313FE4F4D4C800873
:1003A300E95480FFE4FEFDFCEE33EF33F47004FC0C
:1003B300FD7E80D0E0FBD0E0FAD0E0F8D0E0CFC6FD
:1003C30018CEC618CDC618CCC6F9221212C57004B1
:1003D30018181822121298700D74FFF61819F618CF
:1003E30019F61819F622E7548066F61212F6700F02
:1003F3001212EC70F014F608F608F608F680D11223
:1004030012EC700CF608F608768008E6447F80EC60
:10041300121130700C12111B60BFE65480F6E48099
:10042300BB12111B700519191980A5E869700C76A8
:100433003F18768018F618F6E8F922E6CDC0E018E2
:10044300ECC0E0E633CD33CDD313F6E719FCE7195F
:100453001933CC33C3947F400ECD9D502408E6540A
:1004630080F6E418F6800FF4043D14501408E644B3
:100473007FF6187680E418F618F6D0E0FCD0E0FD9D
:1004830022CCD313CCFD18E4C6CBC0E018E4C6CA13
:10049300C0E00808ED08C633E613F618E433C67562
:1004A300F003C3CA97CA09CB97CB199C40047D08B4
:1004B300802EBD000302057716B6FF050606081653
:1004C30018C3CA33CACB33CB33CA27CA09CB37CBFA
:1004D300193CC37D08803E187D0820E75CC633C6FF
:1004E300CA33CACB33CB33DDF1D5F0EB30E77BCA6C
:1004F30097CA09CB974ACB199C406F4B7025E620CE
:10050300E0218066187D08C3CA97CA09CB97CB1927
:100513009CD3C633C6CA33CACB33CB3350C9DDE70A
:10052300D5F0E1D3E4C636C608C636C608C636C615
:1005330008C636C61818188031C3CA97CA09CB979C
:10054300CB199CB34097C633C6CA33CACB33CB331C
:10055300DD34D5F02EC6A2E0C640C8CA27CA09CBEF
:1005630037194A70BECB3CB480B90808E63308E6B5
:1005730033601F181818D0E0FAD0E0FBD0E0FCD0AD
:10058300E0FD22187D08CA27CA09CB37CB193CD313
:10059300808013F618E4B67F11F618B6FF0EF6182E
:1005A300C60470D20808768080CAF618F618F6805A
:1005B300C5001212C5604F1212986012E75480668C
:1005C300F612111870111212EC703B090909F4F6B6
:1005D30018F618F618F62212112D70151212F608D5
:1005E300080860EAE6447FF618768018E4F618F601
:1005F300221212F660161212EC7012E4F608F608D4
:10060300F608E65480F609090918181822EAC0E02A
:10061300EBC0E0ECC0E0EDC0E0E687F0A4FBACF09B
:1006230008E687F0A42CFCE435F0FA1809E687F015
:10063300A42C4B60027401CA35F0FCE433FB09E6D9
:1006430087F0D2F7A42CCB35F0FC1908E687F0A489
:100653002BCC35F0FBE433FD0819E687F0D2E7A491
:100663002C4ACB35F0CD3400FC09E687F0D2E7A461
:100673002DCC35F0FDE433FA0918E687F0D2F7A460
:100683002CCD35F0CA3400FC08E687F0D2E7D2F768
:10069300A42ACC35F07A7E20E70B0ACB33CBCD33BB
:1006A300CDCC33CC33CB3350147004ED30E00ED2C9
:1006B300F1E4CD3DCDCC3CCC3B5005DA05C2F1EBAA
:1006C300547FC63308E63392F0FBE73309E733C3BD
:1006D3009A502D2B70190C0D4C4D70151806E60809
:1006E300C333700D20F10AA2F013F6E418800B4017
:1006F30024E4F630F002768018F618F618F6802413
:10070300D33B14501074FFA2F013F6187680E4184C
:10071300F618F6800FA2F013F618E63303F618EC7A
:10072300F618EDF6D0E0FDD0E0FCD0E0FBD0E0FA27
:1007330022C0E074F2120AF5E5A7FAE5A1FBEA5B31
:10074300541060081221EC53A1EF802AEAA2E0C002
:10075300D0EBA2E092F012116A158182F05017904B
:100763006198E0FA9015D0E0C39AA2D265D03350D5
:1007730002EAF053A1FE7F01020BACC0E074F21257
:100783000AF59061A4E0FA759B00E5915A5408605C
:10079300087591F712222E802AE5915A54106008A9
:1007A3007591EF122234801BEAA2E0C0D0E591A23A
:1007B300E092F012116A158182F05007E0C2E0F076
:1007C3001223549061A3E0FAE5E95A5404600E122F
:1007D300232A75E9FB906193E0A2E640F28097C07B
:1007E300E074F2120AF59061A5E0FAE5BF5A5404E9
:1007F300600653BFFB12236C020779C3E498F8E445
:1008030099F912083F8026C3E49AFAE49BFBE92096
:10081300E7E912083FE498F8E499F922C3E498F869
:10082300E499F912083FE498F8E499F9C3E49AFAD1
:10083300E49BFB22EB20E7CFE920E7E0B90010BB04
:100843000008E88AF084F8AAF022E4FBC8FA22EB55
:1008530070227B10C833C8C933C9335007C39AC346
:10086300DBF280069A50012ADBEAC833F4C8C933A5
:10087300F4C9FA2275F008E4C833C8C933C933C9C7
:100883009AC99B5004C92AC93BD5F0ECFBC833F481
:10089300C8E4C9FA221208D820F01430E72B74FFF9
:1008A300FCFBFA747F8022E4FCFBFA7480801AB4A8
:1008B3008008BC00F2BB00EF800F50EBF9E4C39A51
:1008C300FAE49BFBE49CFCE499C6CC18C6CB18C69F
:1008D300CA18C6F922E4C9C608CAC608CBC6D333A8
:1008E3000308CCC63392F0C3947F402E941840196A
:1008F300C9B90704CACBCC225025C309CA33CACB12
:1009030033CBCC33CC33D9F422F4600DC9CCC3132D
:10091300CB13CBCA13CAD9F6CC22E4FCFBFA2214BC
:10092300FCFBFA22080808EAC0E0EBC0E086F0E727
:10093300A4FA180986F0E7A42AFA180986F0E7A4AE
:100943002AFA180986F0E7A42AFA1986F0E7A4FB25
:10095300E5F02AFA190886F0E7A42BFBE5F03AFA4A
:10096300190886F0E7A42BFBE5F03AFA1818098674
:10097300F0E7A4C5F02BFBE43AFA1908E7C5F0C683
:10098300A426F6E5F03BFBE43AFA1886F0E7A4F672
:10099300E5F00826F6E43B08F6E43A08F6D0E0FB77
:1009A300D0E0FA22080808E630E7111211421209D2
:1009B300BF080808C64480C618181822181818E972
:1009C300799EC608CAC608CBC608CCC6C3702079B0
:1009D30096CACBCC7019798ECBCC70137986CC7038
:1009E3000EF9802ACA33CACB33CBCC33CC3319307C
:1009F300E7F2CCCBCA3350147004EA30E00DE4CAFA
:100A03003ACACB3BCBCC3CCC500209C3E913C6CC8E
:100A1300182313C6CB18C6CA18C6F922E4CFC0E000
:100A2300E4CEC0E0E4CDC0E0E4CCC0E075F020C388
:100A3300E633F608E633F608E633F608E633F61847
:100A43001818EC33FCED33FDEE33FEEF33FFC3EC4C
:100A53009709ED9709EE9709EF97191919400FFFB9
:100A6300EC97FC09ED97FD09EE97FE191906D5F0F1
:100A7300BEECF709EDF709EEF709EFF7191919D0ED
:100A8300E0FCD0E0FDD0E0FED0E0FF222510C582DF
:100A9300C0E0E51134FFC583C0E0E510C3958224AF
:100AA300F8F8E4C5A8858311858210C5A8E8CEF0BF
:100AB300A3E520F0A37808E608F0A3DEFAEFF0A39D
:100AC300E58124FAF8E608F0A3E608F0A3E608F0C7
:100AD300A30808E608F0A3E608F0A315811581D062
:100AE300E0FED0E0F8158115811581E8C0E0EEC085
:100AF300E022C0D02510C582C0E0E51134FFC583D4
:100B0300C0E0E510C3958224F310AF0885831185F7
:100B130082108008858311858210D2AFC8F0A3E9C3
:100B2300F0A3EAF0A3EBF0A37908E709F0A3D8FA5E
:100B3300ECF0A3EDF0A3EEF0A3EFF0A3D0E0F0A36D
:100B4300D0E0F0A3D0E0F0A3E520F0A3E5F0F0A31C
:100B5300221212E1B90003020B96E4900400783AE2
:100B630079178002F0A3D8FCD9FA901A39AA82AB7C
:100B730083900086780D79028015E493A3AC82AD4F
:100B8300838A828B83F0A3AA82AB838C828D83D8E2
:100B9300E9D9E77582B07583BF7403120D29758295
:100BA3009C7583267400120D29851183851082E0BC
:100BB300C0E0A3E0F9A3E0FAA3E0FBA37808E0F622
:100BC30008A3DFFAE0FCA3E0FDA3E0FEA3E0FFA39C
:100BD300E0C0E0A3E0C0E0A3E0F5D0A3E0F520A3EC
:100BE300E0A3F5F0E4C5A8858311858210C5A8D0DC
:100BF30082D083D0E0F8D0E0321212C5601C12120A
:100C03009860171212F670071212EC7001D322C00B
:100C1300D01212EC7006D0D0B322C32233D0D050FE
:100C23001430E0F6C3E7960809E7960809E7960843
:100C330009E796B32220E0D5E6970809E697080965
:100C4300E6970809E697B3221212C5601B121298A1
:100C530060161212F670071212EC600CB322C0D0A9
:100C63001212EC7005D0D022C32233D0D0501330EF
:100C7300E0EBC3E7960809E7960809E7960809E752
:100C8300962220E0E4E6970809E6970809E6970824
:100C930009E69722D083D082ECC0E0EDC0E0E49374
:100CA300A3FCE493A3FDED4C600D120D6BEC24FF4C
:100CB300FCED34FFFD80EFE493A3FCE493A3FDED8F
:100CC3004C600D120F16EC24FFFCED34FFFD80EF9A
:100CD300D0E0FDD0E0FCE493A3C0E0E493C0E022C5
:100CE300D083D082E9C0E0E493A3C386F0C5F09536
:100CF300F0F908E493A386F0C5F095F0700BE49344
:100D0300A3C3994005E9048002A3E475F002A42576
:100D130082F582E5F03583F583D0E0F9E493A3C04F
:100D2300E0E493C0E022F5F0E59F5407C0E0E59FBF
:100D330054F845F0F59FE473859FF053F0F8D0E045
:100D430045F0F59F22D083D082E59F5407C0E0E4AD
:100D530093C0E0740193C0E07402935407F5F0E587
:100D63009F54F845F0F59F22C0E0C3E493960874BE
:100D730001939618400FE493667008087401936614
:100D83001870007019A3A3C3E49396087401939693
:100D930018A3A3400DD0E0D0E0D0E0020CD3A3A36E
:100DA300A3A3A3A3D0E022851183851082E0A3FE31
:100DB300E0A3F5207808E0A3F608DFFAE0A3FFE05C
:100DC300A3C0E0E0A3C0E0E0A3C0E0E0A3C0E0E094
:100DD300A3C0E0E4C5A8858210858311C5A8D0838C
:100DE300D082020D3BC0E074F2120AF5E58AA2E25A
:100DF300502974019011FFF07C067D007AC57B8039
:100E0300790012217A7A027B00901206E0F9121C13
:100E1300707A647B00121D96538AFBC2EB7F01023A
:100E23000BACD083D082C5F0E493A3C5F0C395F097
:100E3300F5F0E493A3C395F04005E5F0048001E4E5
:100E430075F002A42582F582E5F03583F583E493FA
:100E5300A3C0E0E493C0E022C0E074F2120AF5E517
:100E630089A2E150031220CC758900C2C57F01021B
:100E73000BACC0E074F2120AF5E58BA2E05003124A
:100E830020CC758B00C2E880E47404800474028073
:100E930000CCC0E0EDC0E0E510C39CCCAD11500127
:100EA3001D10AF068C108D1180068C108D11D2AFE2
:100EB300120FB4D0E0FDD0E0FC2274028000CCC05D
:100EC300E0EDC0E0E510C39CCCAD1150011D10AFA7
:100ED300068C108D1180068C108D11D2AF120F92DB
:100EE300D0E0FDD0E0FC221212C5602512129860FA
:100EF300201212F670030212EC080808E76670105D
:100F03001819E766700A1819E76670041819E76676
:100F130022F422C0E0C0F088F0E4936670080874FD
:100F2300019366187000A8F0A3A3700BD0F0D0E073
:100F3300D0E0D0E0020CD3A3A3D0F0D0E022D08342
:100F4300D082CCC0E0E493A36006120FF41470FACD
:100F5300E493A360061210AD1470FAD0E0FCE4939E
:100F6300A3C0E0E493C0E022C0E074F2120AF512D9
:100F7300212C7F01020BACC0E074F2120AF512219E
:100F83003280EFC0E074F2120AF512213880E3CA0E
:100F9300C0E0E493A3C582CCC582C583CDC583F0ED
:100FA300A3C582CCC582C583CDC583DAE5D0E0CAAB
:100FB30022CAC0E0E0A3C582CCC582C583CDC58368
:100FC300F0A3C582CCC582C583CDC583DAE6D0E064
:100FD300CA227009080808226016181818C6C333F5
:100FE300C608C633C608C633C608C633C6D5E0EA44
:100FF30022C0E0E493A3D39C5010E493A3C39C408A
:101003000AD0E0D0E0D0E0020F5EA3A3A3D0E02299
:101013007404800A74038006740280027401C0E0C1
:10102300F40412102ED0E01212D4222510F58210EF
:10103300AF08F510400215118008F5104002151194
:10104300D2AF85118322C0D0251010AF08F5105000
:101053000205118008F51050020511D2AFD0D0223D
:10106300BB0102E722C082C08389828A83BB00035B
:10107300E08002E493D083D082226016080808C679
:10108300C313C618C613C618C613C618C613C6D5C7
:10109300E0EA22C0E074F2120AF5C2C0E5D1A2E48C
:1010A30050031221627F01020BACC0E0E493A36CF6
:1010B3007009D0E0D0E0D0E0020F5EA3A3D0E0221D
:1010C300251010AF08F510400215118008F51040E7
:1010D300021511D2AF22C3E09608A3E09608A3E05D
:1010E3009608A3E096A2D265D03322C3E7960809F7
:1010F300E7960809E7960809E796A2D265D0332256
:10110300E066701008A3E066700A08A3E066700446
:1011130008A3E06622181818E6084608700AE608CD
:10112300C3337005E633F4220822191919E7094776
:1011330009700AE709C3337005E733F4220922185B
:101143001818E4C396F608E496F608E496F608E45D
:1011530096F622C3E096F008A3E096F008A3E09683
:10116300F008A3E096F022C0E0E8C0E0E58124FCAB
:10117300F8E6A2E7D0E0F8D0E022E627F60809E691
:1011830037F60809E637F60809E637F622E026F6C9
:1011930008A3E036F608A3E036F608A3E036F62205
:1011A300E026F008A3E036F008A3E036F008A3E059
:1011B30036F022E046F008A3E046F008A3E046F04C
:1011C30008A3E046F022700422600D18C6C333C69C
:1011D30008C633C6D5E0F41822E657F60809E657E1
:1011E300F60809E657F60809E657F622E056F60828
:1011F300A3E056F608A3E056F608A3E056F622E667
:1012030047F60809E647F60809E647F60809E647F8
:10121300F622E056F008A3E056F008A3E056F008E3
:10122300A3E056F022C0E074F2120AF5C2C71222FC
:10123300707F01020BACC3E7960809E7960809E73C
:10124300960809E79622C6F4C608C6F4C608C6F48B
:10125300C608C6F4C622600D08C6A2E713C618C6A0
:1012630013C6D5E0F322C3E09608A3E09608A3E0F3
:101273009608A3E0962275D000758140751000751D
:10128300110400020B54600C08C6C313C618C6131E
:10129300C6D5E0F422E7094709C3134709336002BF
:1012A300E733F422E6F008A3E6F008A3E6F008A388
:1012B300E6F022E0F608A3E0F608A3E0F608A3E0D0
:1012C300F622E6084608C3134608336002E633F401
:1012D30022CAC0E0E6F0A308DAFAD0E0FA2274F8F2
:1012E30055C74401F5C7790122E7C33319471947A5
:1012F300194722E6C333184618461846222510F527
:1013030082E43511F58322120D483D8901120D48FF
:10131300638901120D48758901120D487F890112F5
:101323000D48298A01120D48958A01120D485C8BDC
:1013330001120D48648B01120D48548C01120D48A3
:10134300CD8C01120D48218D01120D48968D01128D
:101353000D48348F01120D48488F01120D48AA8F92
:1013630001120D482F9001120D48859001120D486E
:101373009F9101120D48919201120D48FE920112A4
:101383000D487A9301120D48DC9301120D48149411
:1013930001120D48EF9401120D48F79501120D4803
:1013A300549601120D489D9601120D48C5960112DF
:1013B3000D484E9701120D48E49701120D484A98C3
:1013C30001120D486F9801120D48E89801120D485B
:1013D3007C9901120D48109A01120D48349A01129A
:1013E3000D48589B01120D486B9B01120D48DC9B65
:1013F30001120D48F19B01120D48749C01120D4816
:10140300B39C01120D48EE9C01120D480F9E011270
:101413000D48C69F01120D48D09F01120D48DA9F57
:1014230001120D48E49F01120D48EE9F01120D4871
:1014330008A001120D4812A001120D481CA00112B0
:101443000D4826A001120D4847A001120D4855A0D2
:1014530001120D4879A001120D489DA001120D48FB
:10146300F6A001120D483BA101120D4859A101122A
:101473000D48D0A101120D481AA201120D4850A225
:1014830001120D48CFA201120D4830A301120D48DD
:1014930062A401120D482FA501120D4817A60112CF
:1014A3000D48B2A801120D4823AA01120D48DAAB68
:1014B30001120D4820AC01120D4822AD01120D4856
:1014C3006BAD01120D4821AE01120D48C0AE0112E1
:1014D3000D48E8AE01120D48BBAF01120D48DBB158
:1014E30001120D480DB201120D4872B201120D48DE
:1014F3006DB301120D48B0B301120D48FCB30112D4
:101503000D485BB401120D48A9B501120D48F5B59C
:1015130001120D48FFB601120D48A9B901120D4879
:10152300CDB901120D4898BB01120D48EFBB011252
:101533000D48EBBC01120D4846BD01120D4880BD9C
:1015430001120D48ABBD01120D4889BE01120D48B1
:10155300CDBE01120D4809BF01120D489ABF0112F9
:101563000D489DBF01120D4808C001120D48E52A20
:1015730000120D48372B00120D481E2D00120D4886
:10158300BB2D00120D48EF2D00120D48172F00122E
:101593000D48BF3100120D48203200120D48C338E8
:1015A30000120D487D3B00120D48693C00120D48A6
:1015B300353D00120D48873E00120D488C3F001246
:1015C3000D48AB4200120D487E4400120D48DE4424
:1015D30000120D48BC4500120D48E74500120D48A6
:1015E300874600120D48744700120D4856480012F2
:1015F3000D48264900120D48534900120D487549FC
:1016030000120D48D64B00120D48874C00120D48AE
:10161300DE4C00120D48484D00120D48144E0012C6
:101623000D48494E00120D489D4E00120D48CD4EF7
:1016330000120D480B4F00120D48594F00120D4870
:101643005E4F00120D48B54F00120D48DD4F0012DA
:101653000D48DD5000120D485E5100120D484F53E6
:1016630000120D480C5400120D488F5500120D48FE
:10167300335700120D48D45700120D48B8580012C2
:101683000D48415900120D48885900120D48F25A6D
:1016930000120D48065B00120D48135B00120D4843
:1016A3003D5B00120D48495B00120D48675B001259
:1016B3000D48715D00120D482C5E00120D48705EDE
:1016C30000120D48165F00120D48016000120D480C
:1016D300B16000120D48ED6100120D48D662001290
:1016E3000D48816300120D481A6400120D483164DD
:1016F30000120D48556400120D485F6400120D4836
:101703006B6400120D48896400120D48CD64001209
:101713000D483B6500120D48A66500120D48FF6594
:1017230000120D48676600120D48796700120D48D4
:101733002B6800120D48126900120D4870690012DF
:101743000D48F86900120D48E76A00120D48166B40
:1017530000120D487D6B00120D48576C00120D48A6
:101763007D6C00120D48276D00120D48536D001259
:101773000D48DA6D00120D484F6E00120D48896E48
:1017830000120D48B56E00120D48EA6E00120D48A6
:10179300736F00120D489C6F00120D4810700012F9
:1017A3000D48857000120D489CE303120D48E7E3D2
:1017B30003120D48EBC001120D4819C101120D4867
:1017C300D7C101120D48BDC201120D48C4C3011295
:1017D3000D484FC501120D48C4C501120D4873C60B
:1017E30001120D4870C701120D48DBC701120D48E5
:1017F3002EC801120D4882C801120D488CC801126F
:101803000D48D2C801120D4835C901120D48CDC982
:1018130001120D4842CA01120D482ECB01120D4888
:10182300A9CB01120D48C3CB01120D48F2CB011213
:101833000D481FCC01120D48B6CC01120D48C6CC81
:1018430001120D4819CD01120D4825CD01120D4885
:1018530031CD01120D483ACD01120D4885CD01124B
:101863000D48E0CD01120D4831CE01120D484CCE8A
:1018730001120D4882CE01120D48A3CE01120D486C
:10188300ADCE01120D48C2CF01120D48E0CF0112B7
:101893000D4852D001120D4865D001120D4873D086
:1018A30001120D4814D101120D48E8D101120D485F
:1018B30009D301120D4885D301120D488FD30112AC
:1018C3000D4802D401120D4819D401120D485BD4FE
:1018D30001120D4899D401120D48C8D401120D48C4
:1018E300FFD401120D481DD501120D4841D5011237
:1018F3000D4882D501120D4871D601120D48B7D695
:1019030001120D48E2D601120D4855D701120D48B8
:101913007CD701120D48C1D701120D48CFD7011250
:101923000D4828D801120D4865D801120D48ACD8CE
:1019330001120D48DDD801120D4800D901120D48DE
:101943000BD901120D4829D901120D48E5D901120D
:101953000D48EFD901120D4834DA01120D4878DA37
:1019630001120D488CDA01120D4877DB01120D4884
:101973008ADB01120D489FDB01120D4847DC01127F
:101983000D4893DC01120D4849DD01120D4854DD69
:1019930001120D48A2DE01120D48CEDE01120D48E0
:1019A3000FDF01120D4829DF01120D489ADF0112E2
:1019B3000D4826E001120D485DE001120D48C0E21A
:1019C30001120D4848E301120D48C8E301120D4806
:1019D3000BE601120D481BE601120D481EE601122B
:1019E3000D482AE601120D483EE601120D485DE658
:1019F30001120D4890E601120D4855E701120D48FA
:101A0300BCE701120D4820E801120D48AAE80112B3
:101A13000D485BE901120D4889E901120D481FEADF
:101A230001120D484EEA01120D4870EA01120D48E9
:101A330097EA01120D48FCEA01120D48AFEC0112BE
:101A43000D48B2EC01120D481CED01120D480FEECA
:101A530001120D48F6EE01120D4881EF01120D48F7
:101A6300C4F001120D4887F101120D48C0F10112B3
:101A73000D48F1F101120D48FAF101120D48DEF2A1
:101A830001120D486EF301120D480CF401120D48BA
:101A9300CCF401120D4845F501120D4874F50112FD
:101AA3000D48B1F501120D48F2F501120D4800F68B
:101AB30001120D487CF601120D48B2F601120D48D1
:101AC300FDF601120D4827F901120D4821FB011201
:101AD3000D480EFE01120D483CFE01120D485EFE3C
:101AE30001120D48CBFE01120D4807FF01120D48EC
:101AF30035FF01120D4872FF01120D48C2D30312C4
:101B03000D48DBD303120D4826D403120D4871D4BC
:101B130003120D4814D503120D489CD003120D482F
:101B2300E2D103120D4816A803120D4895A803121B
:101B33000D48A0A803120D48C7A803120D48DBA83F
:101B430003120D4850A903120D4880A903120D4832
:101B53006FAA03120D481CAB03120D487AAB031294
:101B63000D48CAAB03120D48FFAB03120D4857AC27
:101B730003120D4892AC03120D4834CB03120D48E7
:101B83004BCB03120D48E6CB03120D4895CC031241
:101B93000D48C2CC03120D483AD203120D48C8D2E5
:101BA30003120D48D2D203120D48F7D203120D4887
:101BB300A6D303120D48008003120D489C80031224
:101BC3000D48CD8003120D480F8103120D48398152
:101BD30003120D48598103120D48A58103120D48C4
:101BE300F48103120D48468303120D4867830312E1
:101BF3000D48888303120D48E08303120D481284B5
:101C030001120D48E58403120D484F8603120D4857
:101C1300EB8603120D48148803120D481A90031221
:101C23000D48609003120D48099103120D482F913E
:101C330003120D48F89103120D48019203120D4847
:101C4300579203120D48829203120D48E792031232
:101C53000D48589303120D48989303120D48FD93B2
:101C630003120D48269403120D48B49403120D4831
:101C7300149503120D480D8801120D485695031251
:101C83000D48669503120D48859503120D48349649
:101C930003120D48679603120D48B6DE03120D4872
:101CA30017CD03120D4876CD03120D48A2CD0312B2
:101CB3000D48A5CE03120D4861D002120D4845D13F
:101CC30002120D4880D102120D4838D302120D487A
:101CD3007CD302120D4817D502120D485ED50212AD
:101CE3000D483AD602120D48C4D602120D4861D7E8
:101CF30002120D48B9D702120D48FCD702120D4843
:101D0300ACD902120D4863DB02120D4899DD0212B1
:101D13000D48A3DD02120D4800DE02120D4855DE08
:101D230002120D4893E102120D48DC7F00120D48A8
:101D3300F27F00120D48B0FF01120D4817BA0312CB
:101D43000D482FBA03120D48CBBA03120D480CBB32
:101D530003120D4829BB03120D484FBB03120D4854
:101D630085BB03120D48BCBB03120D48E6BC03122E
:101D73000D488DDC03120D48FADC03120D4815DD06
:101D830003120D485ADD03120D4880DD03120D487E
:101D93009ADD03120D48989603120D48B696031266
:101DA3000D48CD9603120D48739703120D48AE9755
:101DB30003120D48A49803120D48E89803120D4826
:101DC300BC9903120D48DD9903120D48C49A0312FE
:101DD3000D48389B03120D488D9C03120D48BF70AC
:101DE30000120D480D7100120D48DA7100120D48F2
:101DF300637200120D48AD7200120D48FB7200129F
:101E03000D48587300120D486C7300120D488D7302
:101E130000120D48927400120D48097500120D4806
:101E2300247500120D48657500120D48A275001245
:101E33000D48FB7500120D48117600120D4894767B
:101E430000120D48207800120D48417800120D4809
:101E5300757800120D48A57800120D48AA78001273
:101E63000D48027900120D489C7900120D48BE7985
:101E730000120D48E17900120D48E47900120D4873
:101E8300537A00120D48757A00120D48927A0012A7
:101E93000D48957A00120D4841E303120D4859E3AA
:101EA30003120D48308803120D48818803120D4830
:101EB300448A03120D48148C03120D485E8C0312DE
:101EC3000D48498D03120D48CF8E03120D48ED8E38
:101ED30003120D48518F03120D48E68F03120D486C
:101EE30066A302120D4890A302120D4808A4021221
:101EF3000D4860A402120D48E6A402120D4849A53C
:101F030002120D488BA502120D4803A602120D48BA
:101F130096A602120D480CA702120D484CA70212F6
:101F23000D4867AB02120D48F7AC02120D481DAD08
:101F330002120D4817AE02120D481AAE02120D48D6
:101F4300FEAE02120D4836B002120D48D6B0021290
:101F53000D4842B302120D48DFB302120D481AB501
:101F630002120D4811B802120D4821B802120D4891
:101F73005AB902120D48C5B902120D48E8BA021245
:101F83000D4837BC02120D48E6BC02120D4880BD55
:101F930002120D483ABE02120D48AABE02120D48A3
:101FA300C2BE02120D4853BF02120D489CBF02125B
:101FB3000D4871C002120D489DC002120D4815C193
:101FC30002120D4861C102120D48D6C102120D481A
:101FD300A1C402120D4820C502120D4889C5021280
:101FE3000D483BC702120D48DCC702120D486EC8EC
:101FF30002120D48CDC802120D4836C902120D480F
:1020030093CA02120D4824CC02120D48A2CD02122B
:102013000D4845CE02120D4810CF02120D486EE452
:1020230003120D4871E403120D4846C203120D4812
:10203300AEC203120D485BC303120D48C1C30312A2
:102043000D4832C403120D4866C003120D48BFC0C9
:1020530003120D4802D903120D4847D903120D4844
:10206300FBD903120D48DFCE03120D48EDCE031248
:102073000D4889E403120D4876E403120D48AEE0DF
:1020830003120D48BEE003120D48DCE003120D48B5
:1020930044E103120D4835DA03120D485CDA0312EA
:1020A3000D48E5DA03120D484CDB03120D48DD9DA4
:1020B30003120D48B4DD03120D48D2DD03120D489F
:1020C30035DE03120D4840DE03120D4885DE031290
:1020D3000D4865DB03120D4876DB03120D48DADB8E
:1020E30003120D48F4DB03120D4806DC03120D48FE
:1020F3001BDC03120D4847DC03120D4856DC0312A8
:102103000D4879A303120D4887A303120D4805A4B4
:1021130003120D482BA503120D48B1A703120D4856
:102123002DD503120D4865D503120D4889D5031229
:102133000D48E7D503120D4849D603120D489F7A7F
:1021430000120D481E7B00120D48D17B00120D4872
:10215300427C00120D48547D00120D48D07E0012BF
:102163000D48307F00120D487E7F00120D48877F97
:1021730000120D489D7F00120D48AF7F00120D48DD
:10218300C17F00120D48CA7F00120D48009E031242
:102193000D48539E03120D48D3A003120D480BA103
:1021A30003120D4830A103120D4849A103120D4833
:1021B30062A103120D489DA203120D483AA3031214
:1021C3000D482AC903120D486DC903120D487EC973
:1021D30003120D48ACC903120D48DCC903120D48A4
:1021E30017CA03120D4887CA03120D48BACA03124D
:1021F3000D4804BD03120D482FBD03120D4876BDD3
:1022030003120D4888BD03120D48A4BD03120D48E7
:102213000CBE03120D4815BE03120D4876BE031201
:102223000D489ABE03120D4864BF03120D4871BFD7
:1022330003120D4882BF03120D48D5E203120D4865
:1022430022E303120D4844B003120D483DB10312BB
:102253000D4852B103120D4865B103120D487FB109
:1022630003120D489EB103120D481DB203120D480F
:10227300DDB203120D484FB303120D48ACB3031282
:102283000D48BCB303120D484EE103120D4873E130
:1022930003120D489CE103120D48C4E103120D48DB
:1022A300BEC403120D48D7C403120D48E3C403127E
:1022B3000D48F7C403120D481BC503120D4827C56B
:1022C30003120D4836C503120D4849C503120D48C4
:1022D3007EC503120D48B8C503120D48EDC50312A0
:1022E3000D483CC603120D4888C603120D48A0C60C
:1022F30003120D48AAC603120D48BBC603120D48AC
:10230300FFC603120D48959D03120D48E9F1021211
:102313000D4815F202120D4831F202120D4844F233
:1023230002120D485AF202120D48C5F202120D486C
:10233300FFF202120D486EF602120D488BF70212DD
:102343000D48BCF702120D481CF802120D48FFF8A5
:1023530002120D4827F902120D483CF902120D48EA
:102363004CF902120D488DF902120D48E2F90212DE
:102373000D48F8F902120D4888D603120D48A3D66A
:1023830003120D48CDD603120D48EAD603120D48A9
:1023930012D703120D4834D703120D484DD7031239
:1023A3000D487CD703120D4897D703120D48F1E36C
:1023B30003120D48B2AC03120D48B9AC03120D4819
:1023C300C6AD03120D48F8AD03120D481EAE03123D
:1023D3000D4851AE03120D4863AE03120D489EAE75
:1023E30003120D480EAF03120D484BAF03120D48F5
:1023F30098AF03120D48C6AF03120D48E6AF0312A0
:102403000D48CBD703120D4804D803120D48FFD84B
:1024130003120D48B7DF03120D480DE003120D48F8
:102423004BE003120D488CE003120D4821FA02120F
:102433000D4824FA02120D485AFA02120D48A0FA66
:1024430002120D48CDFA02120D48F0FA02120D489D
:10245300C9FB02120D48E7FB02120D4867FD021289
:102463000D4886FE02120D48CBB303120D48F3B399
:1024730003120D483CB403120D485EB403120D4819
:102483008DB403120D4899B403120D48B5B4031269
:102493000D48A2B503120D48D9B503120D488DB6E8
:1024A30003120D4897B603120D48A1B603120D4847
:1024B300ABB603120D48B5B603120D481EB703128F
:1024C3000D4809BA03120D489AFF02120D4805C7B9
:1024D30003120D485FE203120D4831E403120D4865
:1024E300F59C03120D481F9D03120D48E9E10312E9
:1024F3000D48D5E102120D48A2E602120D48D7831A
:1025030001120D48B08301120D48958301120D4845
:10251300128301120D48748201120D48EF810112DA
:102523000D48898101120D485B8101120D48E58731
:1025330001120D48968701120D48498101120D4879
:1025430031A302120D48698701120D4888860112D2
:102553000D4813A302120D4829A202120D488EA1A1
:1025630002120D4855A002120D480D9E02120D488D
:10257300279D02120D48099D02120D48839C0212E9
:102583000D48339C02120D48E89B02120D48539BE1
:1025930002120D48EA9702120D48B69702120D482F
:1025A3006F9702120D48449702120D489596021236
:1025B3000D48489602120D48BA9402120D48B7947A
:1025C30002120D48CE9302120D489A9302120D483F
:1025D300028601120D487D8501120D48C384011244
:1025E3000D48D59202120D48059102120D48B8907C
:1025F30002120D48899002120D48738401120D488E
:10260300869002120D48799002120D4843900212EF
:102613000D48359002120D48469503120D48528419
:1026230001120D48098F02120D48898E02120D48BE
:102633004F8E02120D48F38D02120D48C98D0212FE
:102643000D48EC8A02120D48D58A02120D48358ACC
:1026530002120D486C8902120D48B38602120D480E
:10266300DF8302120D48A08302120D483F8202123B
:102673000D48F28102120D482D8102120D4800818E
:1026830002120D48008002120D48678002120D48A5
:102693003A8002120D4892840300000080FBE47329
:1026A30000013636010100010201000103010001AE
:1026B3000401060605020000070100340801000FAB
:1026C300090401010D0100FF0E08000017020000BC
:1026D300190100FF1A0100011B0100051C0100087C
:1026E3001D0200001F010001200100012102000062
:1026F3002301000F24020000260100012701030823
:10270300280200FF2A0100072B0102402C010000D0
:102713002D0100012E0100012F0100FF30010B1CD0
:10272300310800003A0100080101710101010101B2
:102733001101010131010101010180011001610158
:102743003B00140063017301720162014301000144
:10275300130106013D0135000401120100010001CE
:102763000001000104010401330133013C01440170
:1027730032013600000100016501000135008101CD
:102783000001050182018301000103007100300192
:10279300600011007000310220035004800010001B
:1027A30061000000140063007300720062004300C4
:1027B30000001300060000000000040012000000E7
:1027C30000000000000004000400370037003C0252
:1027D3004400000000000000000065000000350018
:1027E3008100000005000000830000000304710461
:1027F30002046004110470040204020401040204CC
:102803001004610400041404630473047204620476
:102813004304000413040604000400040404120423
:1028230000040004000400045104640000040004D4
:1028330000044404000400040004000465040004CC
:1028430035048104640005040004830400040302C6
:1028530071023001600211027002010202020202DF
:102863008002100261023A004100630273027202A5
:102873006202430200021302380000020002040253
:1028830012020002000200020002040204023700E6
:1028930037003C02440200023900000200026502D4
:1028A3000002350281020002050282028302000255
:1028B3000103710301030103010301030103220364
:1028C30002030103100300030003000300030003DA
:1028D3000003000342030003240306030003000371
:1028E300040312032503230325032303040304031F
:1028F3000003000300034403000300032303000356
:10290300650321003503810300030503000300036E
:10291300000336000100060000000F000000000065
:10292300000000000000000003FFFF00000403FF9D
:10293300FF0000FFFF0FF4010005C40403200001A2
:1029430000000B000000000000000003010000CAAB
:102953001F1300461F0100CA1F0200FE1E030004CE
:102963001F04000A1F0500101F06001C1F11003A58
:102973001F1400401F15002E1FFFFF0000019E15AE
:1029830006CE1508C8150BDA1510201502A4150577
:10299300BC1507AA150C8C150D9815FF0000030034
:1029A30003000400080010001F003E007B00F60037
:1029B300EC01D703AF075D0FB91E713D0000F2189C
:1029C3002219F818FE181C1910190A1928192E199A
:1029D300341940190419EC18E618D5C5C5B5A5A5D1
:1029E3009585857575656555554545353525251594
:1029F300059C36063A703DD9404344AD47174B8199
:102A03004EEA5100160F00000B150B020002220FB5
:102A130032000006000102030405060708090A0B39
:102A23000C0D0E0F567777777777777777777777FA
:102A330077777777D619E819EE19BC18F419B61811
:102A4300C218481A661A6C1A4E1A5A1A541AF617EA
:102A5300F0172C1832182618DE17303017181921E2
:102A6300301B1D1F30303016181920231A1C1E303E
:102A730000034948424D18172505020C0E020B04AA
:102A83000B0A0708000F00383C3E363B3B352B430F
:102A93002C00011916181616152303003C1AFA19EF
:102AA300001A0C1A061A16193A19601A46194C1903
:102AB3000005150D0910080402180818FC1738182A
:102AC3000000000000000E18201800BE040A1500C4
:102AD30004000E00030928010809000C040510086E
:102AE3000F08C082C083E99004CCF0E4900481F025
:102AF3001224029004DFE4F0A3F09004CDF0A3F0DD
:102B0300121766122546121484122408900441E415
:102B1300F0A3F09004EFE07002A3E060099004EFEB
:102B2300125D4A1226A1902AE3E493FA7902122451
:102B33009E02598174F2120A8FEAFEEBFF74805FE2
:102B4300F9E47001E9706DEE54207003022C89756D
:102B53000A007C027D007A20122D137C0079047A0E
:102B6300007B001216228A088B09807F0CEC75F01B
:102B730003A4A9F02480F582E93429F583E493645E
:102B8300FF602AE493FA8508828B83E06A70DDAAEA
:102B930008EC75F003A42481F582E93429F583E474
:102BA30093C0E0740193F583D0821226A1AA08ABE7
:102BB30009121C409004CCE0F9121C4C8A088B09C2
:102BC300EA7001EB60047C0080A3EEFA74806FFB73
:102BD300022D057401850882850983A3A3A3A3A3FA
:102BE300A3A3A3A3F0850C08850D09E5087002E5EE
:102BF30009606E7C007904AA08AB091216228A0CBC
:102C03008B0D750A01E5082404126D0E24FFF0A351
:102C1300E034FF124BD17002A3E070C985088285AE
:102C23000983A3A3A3A3A3A3A3A3A3A3E064017002
:102C3300A2850882850983A3A3A3A3A3A3E05404C5
:102C430070917406850882850983A3A3A3A3A3A314
:102C5300A3A3A3F07AB7850882850983122DB080D8
:102C6300841215F27C0079017A007B00121622EAA5
:102C73007001EB7009E50A70057A20122D087420A3
:102C83006EFAEF022BD2EE541060071214B47410D4
:102C930080EEEE54406007121508744080E2EE5453
:102CA3008060071213E2748080D674015FF9E470C8
:102CB30001E9601A9004F1E07002A3E06009900456
:102CC300F1125D4A1226A1EEFA7401022BD17402AD
:102CD3005FF9E47001E9600A121760EEFA74020208
:102CE3002BD174045FF9E47001E96012126084125D
:102CF3005EF47901123C5FEEFA7404022BD17A0080
:102D03007B00022EF37B009004CCE0F9121D5A22C3
:102D13007B009004CCE0F9121D542274F4120A8F44
:102D2300EAFEEBFF7508018E828F83A3A3A3A3A3FF
:102D3300A3E0544060051231B3801590046CE0A207
:102D4300E1500A79001231B3121490800312169ADB
:102D530074FE6A700374FF6B602C125D4612657516
:102D6300121706E98E828F836006122DA9E480056F
:102D7300122DA9740112484FFAA3E0FB122498E91B
:102D8300F509700580127509CDAA098E828F831209
:102D93002DB0E96003750800A908EEFAEFFB1215E0
:102DA300FEA9090258A1E0240D1238A222E0240C46
:102DB3001269D9F91215802274F6120A8FE9FEEA14
:102DC300FF7A0F7B00121C3AEA7001EB6019740C56
:102DD3008A828B83F0EEA3A3F0EF8A828B83A3F026
:102DE300125F0D790080027910025D4174F2120ABC
:102DF3008FEAFEEBFF8C088D09890A740E1213000B
:102E0300E0F50CA3E0F50D850C82F583E4F0A31245
:102E13006366E0F91216E8E96020122F04701B8E36
:102E2300828F83A3A3A3A3A3A3A3A3A31268DD8574
:102E33000C82850D83125EF48003750A00EE241D57
:102E4300122EF8120E250109EA2E612E7B2E842EF6
:102E53008D2EEA2EAE2EEA2EC12EDA2EE32E780C1C
:102E630012101BAC08AD09EEFAEFFB12149C7402AE
:102E7300121049E9F50A806FEEFAEFFB1214A280F3
:102E830066EEFAEFFB12171E80E9EE241712319D4E
:102E930064027053E50A700A126C417003A3E0697F
:102EA3007045EEFAEFFB1216D6803CEE2417123172
:102EB3009D64027032EEFAEFFB1216BE8029900475
:102EC300F3E07002A3E0601FEEFAEFFB9004F3124D
:102ED3005D4A1226A18010EEFAEFFB12172A800733
:102EE300EEFAEFFB121736A90A8005740312104994
:102EF3007F06020DAA124BBC122EFF22126378E04A
:102F0300228E828F83A3A3A3A3A3A3A3A3A312624B
:102F1300CC64022274F4120A8F74DE1210C38A087E
:102F23008B098A828B83A3A3E0F9124C777001EF9C
:102F3300700302301D850882850983A3E064F16074
:102F430033850882850983A3E064CD6027850882E1
:102F5300850983A3E0641A601B850882850983A31E
:102F6300E064E9600F850882850983A3E064E1607A
:102F7300030230AA8E828F83A3A3A3A3A3A3A3E0F8
:102F83005408F9E47001E9700302302574058E8258
:102F93008F83A3A3A3A3A3A3A3A3A3F09004F7E006
:102FA3007002A3E060099004F7125D4A1226A19013
:102FB30004F9E07002A3E0603290046CE0A2E150F7
:102FC3002A8E828F83124DEFA3A3A3A3A3A3A312DD
:102FD30053378882898312640112178AEA7001EBDE
:102FE30060099004F9125D4A1226A18E828F83A391
:102FF300A3A3A3A3A3A3A3A3E06402701074068EE8
:10300300828F83A3A3A3A3A3A3A3A3A3F08508826F
:10301300850983A3A3E0F91216041215F2742202A0
:10302300589E79001215FEE9607D90046CE0A2E1E0
:1030330050621269CE7002A3E060598E828F8312B0
:10304300640174031213001269DE85088285098303
:10305300A3E064E9701B1231A412101F8508828556
:103063000983A3E0F50A780A12101F1248F9121017
:1030730049740C12130012427A123828125EF47942
:1030830000740E121300125337740C1213001264DF
:10309300011214968E828F83A3A3A3A3A3A3E04458
:1030A30020F0A3E0022F9E850882850983A3E0C058
:1030B300E07402121300D0E01257CC126B77EE24A7
:1030C3000B12319D851082851183AA82AB83700513
:1030D30012140680031216E2850882850983A3E091
:1030E30064F16053850882850983A3E064CD60475A
:1030F300850882850983A3E0641A603B850882857D
:103103000983A3E064E1602F850882850983A3E036
:1031130064F060237402121300E064B76019123183
:10312300A412101F7403121300E0F50A780A121098
:103133001F1248F912104990046CE0A2E140030207
:103143002FEE8E828F83A3A3A3A3A3A3A3A3A3E0A2
:103153006402702A8E828F83A3A3A3A3A3A3E05444
:1031630004601B1231B3121706E9700D125D467429
:10317300FFF0A3F0740502300274030230028508E5
:1031830082850983A3E064E96003022FEEEEFAEF80
:10319300FB12173C022FEEEE2411F582EF1250D8EA
:1031A300228E828F83E0F81263F0750A01780A2277
:1031B3008E828F83122EFFFAA3E0FB2274F7120A8A
:1031C3008FEAFEEBFF750800122F047003750801E8
:1031D300126C417003A3E0697006E508D2E1F508BB
:1031E300E5088E828F83A3A36011E07006E508D201
:1031F300E58019E508D2E6F5088003E06010EE24C7
:103203001D12534364016006E508C2E0F508E508B2
:10321300A2E14004D2E7F508A9080250B074F01205
:103223000A8F74D21210C3851082851183126575BB
:103233007408121300125FF9740A121300E4F0A366
:10324300F0740C121300AC82AD8385108285118358
:1032530012387E85108285118312384712167685BF
:103263001082851183126405F8A3E0F9741912130F
:1032730000125EF4740C121300AA82AB831215922F
:103283007402121300E9F07412121300E060267442
:1032930023121300E0FD740D121300E0FC8510826D
:1032A300851183E0F81238477901122552E960034A
:1032B30002381C8013900469E0600D74021213003D
:1032C300E0A2E1400302381C851082851183E024CB
:1032D3002C124BABF8A3E0F990047FE0687003A3D2
:1032E300E0697035750800780812101F780812100D
:1032F3001F7402121300123892F97402121300E0C1
:10330300242A12384E7402121300E02412FAA3E0A6
:103313003400FB124914121049740F121300E0FA1F
:1033230090046FE06A600302381C7412121300E009
:10333300700302340C851082851183E0242A124B1A
:10334300ABFCA3E0FD12386BFAA3E0FB12178A74FF
:10335300061213001265757406121300E07002A3BF
:10336300E0700302381C740D121300E0F88510821C
:10337300851183123828A3A3E028F8A3E03400F9C9
:10338300740D28F582E439F583E0FA74061213000C
:10339300123843E06A601E7406121300A3123D1331
:1033A300EAF09080D678081212B67406121300124F
:1033B30038781212A77904740D121300E0FA123848
:1033C30031E02AFCA3E034008C82F583A3AA82AB0C
:1033D30083121C2E8A088B098C0A8D0B7406121318
:1033E30000123843A3780C1212B6780C7908121223
:1033F30039500302381C9080FE780812119074062D
:103403001213001238781212A790046CE0A2E15054
:10341300030234CE900481E064046008E064096030
:103423000302381C7402121300E0A2E5504712385D
:103433008CC0E07403121300D0E01238BAC0E074F9
:1034430004121300D0E01238B1C0E0740512130067
:10345300D0E0123899120E8C7407121300AC82ADAF
:10346300837410121300AA82AB8312140C74041217
:10347300104902381CA2E6400302381C74291213B7
:103483000012640C701C7423121300E064026003C6
:1034930002381C740C121300AA82AB831216D602D4
:1034A300381C7429121300123821600302381C746B
:1034B30023121300E06404600302381C740C12131B
:1034C30000AA82AB831216CA02381C741D121300A1
:1034D300E0602E851082851183E02402124BABFA43
:1034E300A3E0F5838A82A3A3A3A3A3A3E01412609A
:1034F3009CA3A3A3E0C0E0741D121300D0E0F070FE
:10350300097402121300E0C2E7F0900481E064043E
:103513006005E0640970507415121300126C4E704C
:1035230003A3E06960197415121300122F11600FC1
:103533007411121300E054036401600302381C7415
:103543000E121300E07003023431742912130012B7
:10355300640C700302348974291213001238216039
:103563000302381C0234B27E007402121300E054CA
:10357300617003023673E0A2E0506E12386BFCA355
:10358300E0FD740C121300AA82AB8312150EE970CE
:103593004F1216A6E9FE7402121300E0A2E7504987
:1035A300851082851183E0241212384E740C121395
:1035B30000AA82AB83121514E96018741512130064
:1035C300126CF61213001245B41213007404F0A324
:1035D300E480157402121300E0C2E5F07E00800956
:1035E3007402121300E0549FF07402121300E0A25D
:1035F300E5504412388CC0E07403121300D0E0127B
:1036030038BAC0E07404121300D0E01238B1C0E03D
:103613007405121300D0E0123899120E8C7407123D
:103623001300AC82AD837410121300AA82AB831211
:10363300140C74041210497402121300E0A2E64041
:103643000302374D740812130085820885830978B5
:103653000812101BEEF974021213001238831213AE
:1036630000AA82AB83121586740212104902374BEB
:10367300740E121300E064017038742912130012DF
:103683002EFB6405702C7408121300858208858351
:1036930009780812101B7900740212130012388380
:1036A300121300AA82AB8312158674021210490208
:1036B300381C741D121300E070187900741512136E
:1036C3000012533774171213001264011214AE025E
:1036D300381C1215F8E9600302381C741512130024
:1036E300126CF6121300125EF48E08780812101F83
:1036F3007425121300AC82AD837416121300126486
:10370300017411121300E0F91215507401121049DB
:10371300E96016740A1213007420F0A3E41257C36D
:1037230012383C122EFB543FF07900741712130029
:10373300125337741512130012533B6008740A12A4
:1037430013001261A01216A6E9FE7408121300E01A
:1037530064FE7004A3E064FF70027E00740212131F
:1037630000E0A2E7400302381CEE700302381C8518
:1037730010828511831238621256DF7001EB7003D9
:1037830002381C12383112570D121017740312131A
:1037930000123862FC7D0012483B12104990046904
:1037A300E070087412121300E0601A7423121300FD
:1037B300E0FD740D1213001256F66009AA0CAB0D4E
:1037C300121CB28054740E121300E0C0E0742B126A
:1037D3001300D0E0F0742C121300E4F0A3F0742B68
:1037E300121300858208858309780812101B740C54
:1037F300121300120E90EEF508780812101F7405CC
:1038030012130012387E740D121300125D34121657
:10381300647405121049E970A3742E025563126390
:103823007AE0640722E0FAA3E0F5838A8222851016
:1038330082851183E012383C22F812637AA3A32213
:103843001260A72212383D125AE22212385222FA8B
:10385300A3E03400FB8A828B83E0FCA3E0FD221209
:10386300386622125575E022851082851183E02483
:10387300121269D922125571780822123866F92278
:10388300E02412123852740E22851082851183E0CF
:10389300242E1269D9221257C724241238A22212C5
:1038A30038A622F8A3E03400F988828983221257CC
:1038B300C724301269D9221257C7242F1269D9227B
:1038C30074F0120A8F74EA1210C38A0E8B0F12451A
:1038D3008E750901850E82850F83A3E0F50CE50E35
:1038E3002402FCE50F1245A37408121300125FF9BA
:1038F300740A1213007402F07413121300E4F090AC
:103903001A3BE07010EE7001EF700AE50C7006755B
:1039130009C3023AB0900481E0640860067509C2E5
:10392300023AAC850E82850F83A3A3A3A3A3A3A30B
:10393300A3A3A3E0A2E1500EA2E3500575080480FF
:1039430011750803800CA2E3500575080280037506
:103953000801EE7001EF607E8E828F83A3A3A3A381
:10396300E06404600D8E828F83A3A3A3A3E06403AA
:10397300700C74046508602C7403650860268E82DD
:103983008F83A3A3A3A3E06402600D8E828F83A31E
:10399300A3A3A3E0640170247402650860067401A4
:1039A3006508700B126CF2121300125EF480278EFE
:1039B300828F83A3A3A3A3E06402600D8E828F830F
:1039C300A3A3A3A3E06401700612652D1226A1121E
:1039D3003B6F7E007F007408121300E064FE7004E6
:1039E300A3E064FF703CE50C60179004BEE0640242
:1039F300700F901A42126CF6121300E8F0A3E980DC
:103A030020850E82850F83A3A3A3A3A3A3A3A3A3AC
:103A1300A3E05402F91214BA7408121300EAF0A3D3
:103A2300EBF07408121300E064FE7004A3E064FF7B
:103A330070057509C78072E50CF50A780A12101F24
:103A4300850E82850F83A3A3A3A3A3A3A3A3A3A3E9
:103A5300E0F9123B64740912130012640112142A70
:103A63007401121049E97041A908123B64740812E9
:103A73001300123C588A0A8B0BAE0AAF0BEE70018F
:103A8300EF601E7402650C700D8E828F83A3A3A357
:103A9300A3A3E0D2E3F0740A121300E4F0F5098063
:103AA300087408121300125FF9E50C700F85108279
:103AB300851183AA82AB831224808010FCA9088518
:103AC3001082851183AA82AB831216C4E9FAEE70C1
:103AD30001EF6053E50C60208E828F83A3A3A3A321
:103AE300A3E0D2E6F07402650C700D8E828F83A37F
:103AF300A3A3A3A3E0D2E5F0850E82850F83A3A33E
:103B0300A3A3A3A3A3A3A3A3E0A2E6500D8E828F36
:103B130083A3A3A3A3A3E0D2E7F08E828F83A3A3FF
:103B2300A3A3A3A3E004F0E5097003EA602EFC7DE0
:103B3300007A017B1012240EEE7001EF6003123B3A
:103B43006F7408121300E064FE7004A3E064FF6066
:103B53000B74081213001265311226A17416025554
:103B630063E50E2402FCE50F3400FD22E50E24027A
:103B7300FAE50F3400FB1213222274F7120A8F7432
:103B8300F71210C3EAFEEBFF900481E06403600DBB
:103B9300E064016008E064096003023C538E828F95
:103BA30083A3E06003023C2F7C007D007A027B004C
:103BB30012240EEE2402FAEF125FD51268DD900490
:103BC30072125EF4795312247A7900123C5F9004E6
:103BD30081E06409600990047F1264011217847400
:103BE30001125D687404900481F07401121300AA39
:103BF30082AB83794A1224747401121300AC82AD30
:103C0300837A777B0412242679007401121300ACA3
:103C130082AD83900475123C5890046CE0A2E3508B
:103C230004D2F08002C2F0125D4E80218E828F8317
:103C3300A3AE82AF83FC7D007A037B1012240E8E29
:103C4300828F83E0F9123C5FE4900481F01215D473
:103C530074090250AD125AE2121C762290047F12AC
:103C63005AE212142422C082C083900441E07002FD
:103C7300A3E07041900481E0120F410003018B3CEB
:103C8300059A3C06A93CB83C900449E07002A3E0C5
:103C9300607B9004498070900445E07002A3E0606B
:103CA3006C9004458061900447E07002A3E0605D7E
:103CB3009004478052900441E07002A3E060051233
:103CC3004286702379009004CD800909EA12676A5D
:103CD300EB125324124E987001EB70EF9004CD1247
:103CE30064011214128026900442123D13A3A3A36D
:103CF300E06402700512175480139004F5E070021B
:103D0300A3E060099004F5125D4A1226A1025981CD
:103D13001260AA227A0F7B00121C3A8A0A8B0BAE1E
:103D23000AAF0BEE22A3124761A32212540690049A
:103D33007F2274F4120A8F74EB1210C38A828B836E
:103D4300A3A3A3A378081212B67808121249900409
:103D53008278081212157D7F7E7F7C0075080175BD
:103D63000900750A00750B00EC7808120FD5900452
:103D73008278081211EF9080D67808121103602A16
:103D83007F009004CD801288828983A3A3E06C70A6
:103D9300010F126769E9125324124F067001E9708B
:103DA300E6EFC39D5004EFFDECFE0CECC3941B4007
:103DB300AB8A828B83A3A3A3A3C082C0839080D644
:103DC30078081212B6D083D0827808121103605B90
:103DD300EA125155FAE9FB8A828B8378081212B6EC
:103DE30090048278081212A78A828B8378081212B1
:103DF300B685108285118378081212A774041213F2
:103E0300007401F0900488E0C0E07405121300D040
:103E1300E0F07407121300123F84806590047F1250
:103E2300640112144890047F1265759004CD124FFB
:103E3300067001E960268882898312640190047FF9
:103E4300E06A7003A3E06B700A88828983A3A3E00E
:103E53006E60C9126769E912532480D2EE9004742C
:103E6300F01215C2E9601AE4900481F090044BE06B
:103E73007002A3E0600B79C490044B125D4A1226D2
:103E8300A102589C74F4120A8F74EB1210C38A8235
:103E93008B83A3A3A3A3A3A3A3A3A3124F06FAE90C
:103EA300FB7C00750801750900750A00750B00ECB1
:103EB3007808120FD590048278081211EF9080D6FB
:103EC30078081211036037901A41E0C0E08C08EAC9
:103ED3002508F582EB1231A0FDD0E0C39D501F757C
:103EE3000801750900750A00750B00EC7808120FBC
:103EF300D5780812124990048278081212150CEC36
:103F0300C3941B409E9080D678081212B675830422
:103F13007582827808121103604190048278081236
:103F230012B685108285118378081212A7740412C1
:103F330013007401F074071213007401F0900488E5
:103F4300E0C0E07405121300D0E0F0740712130010
:103F5300123F847406900481F08023E4900481F07E
:103F6300FCFD7A047B1012240E90044BE07002A334
:103F7300E0600B79C490044B125D4A1226A10258EB
:103F83009CE412658312248C2274F2120A8F74ED5E
:103F93001210C3EAFEEBFF8E828F83A312426A855F
:103FA3001082851183AC82AD838E828F83A3A3A3FA
:103FB300A3A3A3A3124BA11263FA1215E6851082E1
:103FC300851183E0706A8E828F83A3A3A3A3A3A327
:103FD300A3A3E0C3940B4058850882850983A3A358
:103FE300A3A3A3A3A3A3E064027045900481E064A8
:103FF300026042E06406603D900441E07002A3E089
:104003006005124286605E900481E064086005E00A
:104013006404701C7402121300E0F9740712130095
:10402300AC82AD838508828509831263F81215EC8F
:104033007413022EF0900441E07002A3E070267521
:104043000A00780A12101F780A12101F124258121F
:10405300532412428FFCA3E0FD8508828509831255
:1040630049181210499004CD1255899004CDE0F5FA
:104073000AA3E0F50B80378E828F83E0F8A3124208
:104083008F687003A3E06970198E828F83A3A3E006
:10409300FAE508240DF582E5091231A06A700302DE
:1040A30041258E0A8F0BEE12676AEF125586EE706A
:1040B30001EF70C37A187B00121CAC8A0C8B0DAE17
:1040C3000CAF0DEE7001EF70030240339004CDE0AE
:1040D3007002A3E070059004CD800AE50A12676AB6
:1040E300E50B125324126B778E828F83125FF0EEEF
:1040F300240C12532174FFF0E48E828F83A3A3A3B5
:10410300A3A3124DF9A3A3A31242A2E4F0A3F0E5E3
:1041130008240B126D0E12424E124BD1C412424EA2
:10412300A3F07401121300124274A3F07402121369
:1041330000124274F0E508240DF582E509125324B8
:10414300123D29A3125EFAA3A3A312427A125EF4CC
:104153007402121300E0640160117407121300ACBF
:1041630082AD83EE240D12426180117C087D0079BB
:10417300FFEE240DFAEF3400FB121C287412121305
:1041830000E0C0E0EE2415125321D0E0F0901ACFE6
:10419300E0C0E01242581231A0FAD0E0C39A4003C3
:1041A300024033126810E509125324A3E05480F946
:1041B300E47001E9700990123DE07003024033742A
:1041C30004121300124753A3A3700EE0704E74063B
:1041D300121300E07006024033E0601574051213F9
:1041E30000E0C0E0EE240C12319DFAD0E0C39A50F7
:1041F3002B850882850983126D21125EF2124258C3
:104203001231A0C0E012531ED0E0F0740512130067
:10421300E0C0E0EE240C125321D0E0F07406121338
:1042230000E0600D74018E828F83A3A3A3A3A3A3D5
:10423300F07404121300E0700302403374018E82A1
:104243008F83A3A3A3A3A3F0024033540F8E828FC3
:1042530083A3A3A322E5082410F582E50922FAEF3C
:104263003400FB12242622A3A3E0F508A3E0F509FA
:1042730022124757024D4312427E22E0F8A3E0F98F
:104283000265A19004411248F2640122E0F9850815
:1042930082850983A3A3A3A3A3A3A3A3A3E022A328
:1042A300F0EE2416124BBC2274F4120A8F74C91256
:1042B30010C3900481E06408606D900492E0F824D8
:1042C300C3F582E4341AF583E0F508900463F0E85B
:1042D30024C9F582E4341AF583E0F509900461F00A
:1042E300750AFF750BFFE508780A1211C9E50AF490
:1042F300F8E50BF4F93395E0FA90048AE8FCE9FD5C
:10430300EAFE12445B750AFF750BFFE509C39508C6
:10431300780A1211C9E50AF4FCE50BF4FD3395E0C4
:10432300FE90048E12445BE4125D5C790412247ADD
:10433300900492E07009741E1213007401800674D5
:104343001E121300E4F0740F851082851183F09020
:104353001A4012657F794612247A7401121300E41D
:10436300F0901AB1E0C0E07402121300D0E0F090B4
:10437300046FE0C0E07403121300D0E0F074041281
:104383001300E4F07405121300E4F0740712130031
:10439300E4F0900492E0C3940F500CE0C0E0740684
:1043A300121300D0E080077406121300740FF07C20
:1043B300937D047408121300AA82AB831224267C13
:1043C300037D0079FF7410121300AA82AB83121CC1
:1043D300289004CBE0C0E07413121300D0E0125E07
:1043E30026121300125E151216B2900486E0C0E086
:1043F300741C121300D0E0F0900487E0C0E0741D39
:10440300121300D0E0F0900474E0C0E0741A1213A9
:1044130000D0E0F090047F1268DD741812130012CC
:104423005EF47420121300E4F0900489E0C0E07499
:104433001F121300D0E0F07434121300E4F0742957
:10444300121300E41244667414121300AA82AB839D
:10445300122492743702589EECF0A3EDF0A3EEF011
:10446300A3F022F07A727B0479531244712212244E
:104473007A7A757B04794B12247A22C082C0838AAC
:10448300828B83A3E06007E4900481F0804A740880
:10449300900481F0900492E0701F90044BE070024E
:1044A300A3E0600B790090044B125D4A1226A190A1
:1044B300047F1253377A05801A790012141E900470
:1044C300721253377A067B0012240E90047512532E
:1044D300377A047B0012240E02598174F4120A8F76
:1044E30074EA1210C38A088B0912458EEE7001EF2D
:1044F30070030245898E828F83A3A3A3A3E0640183
:1045030060278E828F83A3A3A3A3E06402601A8E25
:10451300828F83A3A3A3A3E06403600D8E828F83A2
:10452300A3A3A3A3E06404705DE5082402FCE509EA
:104533001245A3126CF21213001245B41213007445
:1045430001F0741312130012657E1224868908ACDD
:10455300087D007A077B0012240E8E828F83A3A32B
:10456300A3A3A3E0C2E0F074018E828F83A3A3A36D
:10457300A3A3A3A3A3A3F074028E828F83A3A3A3F5
:10458300A3A3A3A3A3F0741602589EEA24020A0A63
:10459300EB3400FB1213168A0A8B0BAE0AAF0B2205
:1045A3003400FD851082851183AA82AB83122426F1
:1045B30022E8F0A3E9F0740A2274F7120A8F900438
:1045C300CDE0FAA3E0800CEA2416125583121CB244
:1045D300EEFAEFFBEA7001EB70ED9004CDE4F0A38B
:1045E300F00250B074F4120A8F8A088B09EA24137C
:1045F300F582EB1231A06403700DEA240BFAEB345D
:1046030000FB121316800DE064027075EA12681243
:10461300EB126D1A8A0A8B0BAE0AAF0BEE7001EF29
:10462300605F850882850983A3E0700DE48E828F25
:1046330083A3A3A3A3A3A3804764F1600C8508828B
:10464300850983A3E064E1701F8E828F83A3A3A3F4
:10465300A3A3A3E06401701012652D1226A1E5083F
:10466300240BFAE509123B768E828F83A3A3A3A3BF
:10467300A3A3E0600C8E828F83A3A3A3A3A3A3149D
:10468300F00258A174F2120A8F8A0C8B0DECFEED26
:10469300FF890B8A828B8312676F8A828B8312470F
:1046A3005BEEF8EFF9A30EAF838A828B83A3A3E0BB
:1046B300C454F0FA88828983E04A12476A12476138
:1046C300124765E0333354FCFA8E828F83E04A123B
:1046D3004765A3E033333354F8FA8E828F83E04A7D
:1046E300F008EFF9A30EAF83850C828B83A3A3A3FA
:1046F300A3A3A3E0A2E0E492E013135480FA888218
:104703008983E04AF0E50C2407F508EB3400F5094A
:10471300750A0078081210177C081256D612104931
:104723001268F3E50C240FF508E50D3400F509785C
:10473300081210177C031256D6121049E50BC394C6
:104743000F400A12482C125324124753F0022EF33F
:1047530012475722E0024250A3124761F022E002BF
:1047630065A112476AA322F0850C828B83A3A3A3BE
:104773002274F2120A8FEAFEEBFF890B8C0C8D0D6B
:104783008E828F83E08C828D83124DFEAE82AF8347
:10479300E012593112484EC4125931124841E054C3
:1047A300038C828D8312484CA2E2E492E08C828DCA
:1047B3008312484B131313541F12593112484AA240
:1047C300E7E492E08C828D83A3A3A3A31248418ED6
:1047D300088F09750A0078081210177C087D00E518
:1047E3000C24071248351210491268F38E088F09FA
:1047F30078081210177C037D00E50C240F1248354E
:10480300121049E50BC3940F40148E828F83A3A328
:10481300A3E0C0E012482C125324D0E080071248D2
:104823002C125324E4F0022EF3E50C2412F582E556
:104833000D22FAE50D3400FB121C1C740322A3A302
:10484300124DFE0EAF8322A3A3A3A3A3F08E828FE8
:1048530083E02274F4120A8F74F91210C3EAFEEB98
:10486300FF900441E07002A3E060101248EB640281
:104873007009EEFAEFFB12174E806890047FE06E2A
:104883007003A3E06F705C74016960097A937B0421
:10489300126579704E7A007B029004CCE0F9121D08
:1048A30060EA7001EB703C90048278081212B685BE
:1048B300108285118378081212A7900488E0C0E063
:1048C3007404121300D0E0F074051213007401F0A5
:1048D3007406121300740212657F1213D0E96092FA
:1048E3001213D6740702589E9004411248F2221202
:1048F3005575A3A3E022E508240CF582E5091251BE
:104903004F8A828B83A3A3A3A3A3A3A3A3A3123836
:104913005C8A828B83125AE21216AC740222E0F98B
:1049230002598174F6120A8F9004DEE0701F7C0036
:1049330079017A007B00121622EA7001EB600E8A7D
:10494300828B83E07002A3E0600312157A025D415B
:10495300C082C083124DE0401079FF12161CE9FAA1
:10496300902ADEE493C39A5004790180027900020D
:10497300598174F1120A8F8A0A8B0B890E7509000B
:104983008A828B83A3A3A3A3A3A3A3A3E0F91216F1
:10499300288A0C8B0DAE0CAF0D750801EE7001EF7C
:1049A3006003024A4B850A82850B83A3A3A3A3A3B7
:1049B300A3125337850A82850B83A3A3A3A3A3A3BF
:1049C300A3A3E0F9850A82850B83126401121610F2
:1049D3008A0C8B0DAE0CAF0DEE7001EF7003024B22
:1049E300888E828F83A3A3A3A3E4F0A3F0E50A2414
:1049F3000BFAE50B125FD5E0C0E012531ED0E0F0D6
:104A0300121712EE240C12656E750901EE2406F8D6
:104A1300EF126D11547FF0A3E054FC124BD15404F8
:104A23006003024ACF901AAAE0F50A750B007407D7
:104A3300780A1211C98E828F83A3A3A3A3A3A3E031
:104A4300450AF0A3E0450BF08E828F83A3A3A3A3B3
:104A5300A3A3E05480F50AA3E05403F50B7407788D
:104A63000A121289E50E607774028E828F83A3A3E4
:104A7300A3A312484A240D124BABA2E2500990049F
:104A83006D124B9F125EF2E50A7003024B56EE2441
:104A930006F8EF3400F9E8FAE9FB8A828B83E054E5
:104AA3007FFCA3E054FCFD74FF250AF50A74FF3470
:104AB30000F50B7407780A1211C9E50A4CF8E50BE7
:104AC3004DF98A828B83125EF4024B568E828F835A
:104AD300A3A3A3A3A3A3E04480F0A3E0024A4AE56F
:104AE3000A7005750800806B8E828F83A3A3A3A32E
:104AF300A3A3E054206017121C348A0A747F550A5A
:104B0300F8745F288E828F83A3A3A3A380278E824A
:104B13008F83A3A3A3A3A3A3E05410600E121C349A
:104B23008A0A740F550AF8740180D88E828F83A382
:104B3300A3A3A37401F0A3E4F074048E828F83A370
:104B4300A3A3A3A3A3A3A3A3124E057001EB700316
:104B5300124B9274016509702F8E828F83A3A3A3D6
:104B6300A3126596F9EEFAEFFB121616E96019EE39
:104B7300240C12319D7002A3E06003124BAFEEFAD6
:104B8300EFFB121CB2750800A9087F07020DAA7A71
:104B9300207B009004CCE0F9121C7022E0F8A3E023
:104BA300F98E828F83A3A3221269D922EE240C12D9
:104BB3004BBC124BC822EE240FF582EF124BC322DB
:104BC3003400F58322E0FAA3E0FB121CB222126048
:104BD300A3E02274F4120A8F750800124C77700157
:104BE300EF7003024C728E828F83A3A3A3A3A3A3AC
:104BF300A3A3A3E0640670771216468E828F83A365
:104C0300A3A3A3A3A3A3E05408F9E47001E9605CA0
:104C13008E828F831250BB7A007B0012160AEA70D1
:104C230001EB7048124C7D1224AA7C007D007A00AF
:104C33007B0080228E828F831250B57004A3E064C0
:104C4300FF6029124C7D122192E9641A601E7C00D8
:104C53007D00EEFAEFFB12160A8A088B09AE08AF45
:104C630009EE7001EF70CD79001224B0750801A927
:104C7300080258A1121628023D1E90047F12659C5B
:104C8300125AE22274F7120A8F8A828B83E58270AA
:104C930002E58370099004DF80068A828B83A3A3D5
:104CA300124E987001EB602C8A828B83A3A3A3A37B
:104CB300A3A3A3E05408F9E47001E960DDEC7001FB
:104CC300ED60158A828B83122EFB6C7003A3E06D5B
:104CD30070C880047A007B000250B074F2120A8F0D
:104CE3008A088B09890AECFEEDFF7A0E7B00121C01
:104CF300ACEA7001EB603EE48A828B83A3A3A3A397
:104D0300A3A3A3A3124D3BE50A1265FBA3A3126B56
:104D1300738A828B83A3A3A3A3E4F0124D3B126592
:104D2300F9126F6BEA240CF582EB12532E1265FA1B
:104D3300A3A3F0A3F0022EF3126CEB8002A3A3A3B0
:104D4300A3A3A3A32274F5120A8FEAFEEBFF890A39
:104D53008C088D09EE7001EF60597401650A7014B7
:104D6300790112161CE9FA902AE4E493C39A500FCE
:104D7300791180647404650A7033124DE040F18E3A
:104D8300828F83A3A3A3A3A3A3A3A3A3E50A124D83
:104D9300F9126F698E828F83A3A3E4F0A3F09004CA
:104DA300DFE07002A3E09004DF601C800A740265F8
:104DB3000A60CC79C18021124DEFE07002A3E08834
:104DC300828983A3A370F0EEF0A3EF124E05700166
:104DD300EB7003124B9279007F03020DAA79041240
:104DE300161CE9FA902AE0E493C39A221254068827
:104DF300828983A3A322124DFEA322F08E828F8386
:104E0300A322F07A207B009004CCE0F9121D60EA23
:104E130022C082C083E9FC79009004DF801D8A826E
:104E23008B83A3A3A3A3A3A3A3A3A3E06C60057491
:104E3300FF6C7001098A828B83A3A3124E987001C1
:104E4300EB70DB02598174F7120A8F8A828B83E538
:104E5300827002E58370099004DF80068A828B8367
:104E6300A3A3124E987001EB60248A828B83A3A3C1
:104E7300A3A3A3A3A3A3A3E06970E1EC60148A82B4
:104E83008B83E0240D126822A2E240D080047A00D2
:104E93007B000250B0125AE2EA22C082C08390041F
:104EA300DF80068A828B83A3A3124E987001EB6086
:104EB300128A828B83A3A3A3A3A3A3A3A3E06970F2
:104EC300E280047A007B00025981C082C08390048F
:104ED300DF800688828983A3A3124F067001E960ED
:104EE3001B88828983E0FCA3E0F5838C82E06A70EF
:104EF30003A3E06B70DDE8FAE9FB80047A007B0032
:104F0300025981125406E82274F1120A8F8A0A8B1D
:104F13000B8C0C8D0D750800750900EA7001EB60B0
:104F23002E9004DF80068E828F83A3A3125589EE11
:104F33007001EF601AAC0CAD0DEEFAEFFB850A823F
:104F4300850B831226A1E9640170DB8E088F09AA01
:104F530008AB09024B8D7900020D3B74F7120A8FDF
:104F63009004DF1268DD7C007D00800DE8FCE9FD24
:104F730088828983A3A31268DDE87001E96030EABF
:104F8300687002EB6970E59004DF126401E86A70EF
:104F930002E96B88828983A3A370081268DD9004F9
:104FA300DF80091268DD8C828D83A3A3125EF40275
:104FB30050B074F7120A8FEAFEEBFFEE7001EF6058
:104FC300161216401250C17002A3E06003124BAFD9
:104FD300EEFAEFFB121CB20250B074F7120A8F8A7A
:104FE300828B831250BB9004DF1268DD7508007E4C
:104FF30000803388828983A3A3A3A3A3A3A3A3A32A
:10500300E0640570180E88828983E0FFA3E0F583CE
:105013008F82E06C7003A3E06D70020508888289BB
:1050230083A3A31268DDE87001E970C7902AD7E46F
:1050330093FCE508C39C500B902AD8E493FCEEC381
:105043009C400F8A828B83A3A3A3A37401F0A3E4E0
:10505300801290046D1268DD8A828B83A3A3A3A3BD
:10506300E8F0A3E9F074058A828B83A3A3A3A3A327
:10507300A3A3126CE6A3A3A3E0F0A3E04408126584
:10508300FB1250B57004A3E064FF601590047F1217
:1050930053378A828B831264011224A4E9641A7041
:1050A3000579011224B08005741F1210497F010293
:1050B3000DAA122EFF64FF22122EFF02385D126921
:1050C300D2124BC98E828F83124BC8EE240CF58209
:1050D300EF1250D822124BC3E02274F7120A8F74D6
:1050E300E11210C3EA2413F582EB1231A0C0E0747D
:1050F30011121300D0E01253FB7409121300125360
:10510300F4125155FCE9FD8C828D831268DD740B1A
:105113001213001253F42414F582EB1231A0C0E0F1
:105123007412121300D0E0F0EA240E1251488C825C
:105133008D83125337851082851183AA82AB831224
:1051430015140250ABF582EB12514F22124BC3E000
:10515300F9222404F8EB3400F9E82274F4120A8FDC
:1051630074FC1210C3EAFEEBFF1215F8E96005792F
:10517300110253198E828F831262C6600312532861
:10518300EE241312319D7003741EF012319A6401E0
:10519300701990130BE0600D900469E0700D8E821E
:1051A3008F83E07006EE241112532BEE2414123178
:1051B3009D701590045EE0C0E0EE2414125321D0DC
:1051C300E0F090045EE004F090046CE0A2E150464D
:1051D3008E828F831262C6603D8E828F83E0600869
:1051E300EE240B125343602EEE240F12319D5440D4
:1051F3006017EE241312319D6401700DEE240F121B
:10520300319D54FB1261A3800DEEFAEFFB1216528F
:10521300E970030251728E828F83E064017015EE90
:10522300240B122EF86402700BEE240F12319D44EE
:10523300401261A3EE240F12319D54407054900428
:105243006CE0A2E1504C750800780812101FEE24A0
:1052530006FCEF3400FD8E828F831263FFEE24126F
:10526300F582EF12514B1215507401121049E96087
:105273000612532812619D79008E828F83A3A3A304
:10528300A31253378E828F83A3A312533B6003125F
:10529300619D851082851183AC82AD83EEFAEFFBAD
:1052A30012166A8A088B098E828F83A3A31253373F
:1052B300EA7001EB605C8E828F83E0C0E0740112C0
:1052C3001300D0E0F07402121300126B7774011212
:1052D300130085820A85830B780A12101BEE240FB4
:1052E300125321120E90EE240E12319DF50A780A04
:1052F30012101F7405121300E0F9121664740512DC
:105303001049E9FE74106E700BAA08AB09121CB2A7
:1053130080027E10EEF9740402589EEE240BF5828F
:10532300EF124BBF22EE2412F582EF124BBFE4F0D3
:1053330022124BBC12385C22125AE2121496E92252
:10534300124BBC122EFFF91216E8E922C082C08369
:1053530074DE1210C38A828B83A3A3A3A31268DD16
:10536300740E121300E8F0A3E91253FB740C12132A
:10537300001253F4240DF582EB1231A0C0E0741A2D
:10538300121300D0E0F01268D474201213001253E9
:10539300F42415F582EB1231A0C0E0740812130057
:1053A300D0E0F0EA241C1268D77412121300125EC4
:1053B300F474FF851082851183F074011213007455
:1053C300FFF0740212130074FFF09080D6120E8C5B
:1053D3007404121300AC82AD837407121300AA8203
:1053E300AB8312140C74041210497900742202590D
:1053F3007EE8F0A3E9F0EA22F08A828B8312540458
:1054030022A3A3E0F8A3E0F92274F0120A8F74EE4A
:105413001210C374101213001265758C0E8D0F8950
:105423000D7422121300E0F50C74231213001255AD
:10543300897508107A1E7B00121CAC7402121300CB
:105443001265757402121300E07002A3E070030288
:10545300555B750900AA0EAB0F125D277001E96059
:105463002388828983A3A3A3A3E06401600D8882B8
:105473008983A3A3A3A3E064037009EE54407004DB
:1054830074044FFF74045FF9E47001E96003750964
:1054930001851082851183AA82AB837950125B2E1A
:1054A30012130012556BA31265757402121300E0F8
:1054B300240B122DAC7402F012130012556B7402FC
:1054C300F0121300125D4AE50EF0A3E50FF074022B
:1054D300121300E0241B122DACE50DF0740212131D
:1054E30000E0240C122DACE50CF074101213001222
:1054F3005B37121300E0241C122DAC12657574087F
:10550300121300126B77740A121300E50CF0742562
:10551300121300125D4AC082C083740D121300ACD3
:1055230082AD83D083D0827403120FB4A9097402AD
:10553300121300AA82AB831215FEE964017011E510
:10554300096008A90C12162812164C750800800869
:105553007402121300124BB5A9087412800274026C
:105563001210497F08020DAA125571024D431255BC
:105573007522E0F8A3E0F5838882024D43EA240B09
:10558300F582EB124BBFE0FEA3E0FF2274F0120A98
:105593008FEAFEEBFF8C088D0974088E828F8312CD
:1055A30042A2E0600874108E828F83A3F0EE24176A
:1055B30012319D60098E828F83A3E02408F012319B
:1055C3009A6005750E0E8003750E008E828F83A37D
:1055D300E0C0E0EE240D125321D0E0FAE02A250EBC
:1055E3008C828D83F012319A60051258A62AF085B9
:1055F3000882850983E0C3947540030256C9E0120B
:1056030056DF7001EB70030256CFEEFAEFFB121672
:1056130070EA850C82850D831261D8EE2402F8129C
:1056230056EB12571AF0EE240408081256EBA3A304
:1056330012571AA3A3F0EE2413125703F0EE241407
:10564300125703A3F0750808EE241612319D601358
:10565300EE2418125334E50C2408FAE50D124263C4
:10566300750810EE241712319D6010EE241A1253A0
:1056730034E50C2508FAE50D12426312531E125746
:105683000D121017EE240D12319DFC7D008E828FBA
:1056930083A3E0F8E50C28F8E50D3400F9E50E28BE
:1056A300FAE4391256DB12104912319A601EEE24C5
:1056B3000D12319DFD8E828F83A31256F6600DAAC3
:1056C3000CAB0D121CB2750C00750D00AA0CAB0DC2
:1056D3000255667D00EEFAEFFB02483BFA7B0012AF
:1056E3001CAC8A0C8B0DEA22EF126D15850C82859A
:1056F3000D8322E0FCAA0CAB0D7900122552E9229E
:10570300124BBC125721A3A3A322E0F508A3E0F593
:1057130009750A0078082212572C12572122E085B6
:105723000C82850D83A3A3A322A3A31260A3A322A8
:1057330074F6120A8F8A828B83E0FC90046F1257EF
:10574300BC740278081211C9E5084CFCAD09EA24BF
:10575300121257B6740678081211C9E5084CFCE515
:10576300094DFDEA24111257B6740978081211C9BC
:10577300E5094DFDEA24161257B6740B7808121189
:10578300C9E5094DFDEA24171257B6740C780812BF
:1057930011C9E5094DFD8A828B83A3A3A3A3A3A308
:1057A3001257BC740A78081211C9ECFAE5094DFBCB
:1057B300025D41F582EB124BBFE0F508750900224B
:1057C3001257C7221257CCE022F08510828511832D
:1057D3002274F4120A8F8A088B09ECFEEDFFE98E1E
:1057E300828F83F0125AA0C0E0EE2411125321D00D
:1057F300E0125A9AC0E0EE2412125321D0E0125A5A
:105803008C6003125A748E828F83A3A3A3A3A3A3D2
:10581300A3A3E060248E828F83A3A882A983E0FAE6
:10582300E5082AFAE5093400FBEE2415125321EAB0
:10583300F0A3EB124BD12408F08E828F83A3E0FAFE
:105843008A0AE508250AF8E5093400F9EE241D1251
:10585300618E12484FC39AC0E0EE2417125321D031
:10586300E0126FF7E06030EE2417F508EF3400F52F
:1058730009850882F583E024F2F0EE241DF8EF1287
:105883006D11240EFAA3E03400FB8882898312652C
:10589300751258A6C39AF0800574151210497F0437
:1058A300020DAA90046AE0F9122540E9FA850882FC
:1058B300850983E02274F4120A8F8A088B09EA129D
:1058C3005938F0EA1313543F125931A3A3A3F0EA52
:1058D300C41313125938A3A3F0E48C828D83A3A3BA
:1058E300A3A3A3F08A0A8B0B7409780A121289E521
:1058F3000A125928F0EC2418F582ED12532E8A0A65
:105903008B0B740B780A121289E50A125923F0746F
:105913000C7808121289E508125923A3F00258A142
:10592300125928A32254018C828D83024D41540FB6
:105933008C828D832254038C828D83A3A322C08205
:10594300C08379008A828B83A3A3A3A3A3A3E0903C
:105953000469600FE070228A828B83A3A3E070192D
:10596300098016E060138A828B831263F8900472B5
:10597300E06A7003A3E06B70E78003121049D083E1
:10598300D082020D3B74F3120A8F8A088B09890CAB
:10599300ECFEEDFF125AA0C0E0EE2411125321D009
:1059A300E0125A9AC0E0EE2412125321D0E0125AA8
:1059B3008C6003125A748E828F83A3A3A3A3A3A321
:1059C300A3A3E0601B8E828F83A3125A62EE241579
:1059D300125321125EF4850A82850B83E02408F0BA
:1059E300EEFAEFFB121682E970728E828F83A3A305
:1059F300A3A3A3123D287025E0FC8C0AE508250A21
:105A0300FAE5093400FBEE241D12656EE50CC39C18
:105A1300C0E0EE2417125321D0E0F0803F125A6207
:105A2300740E28F8E439F9EE241D125321125EF4A2
:105A330090046AE0F9122540E9FA850A82850B830E
:105A4300E0FCE50CC39C24F2C39AFDEE2417125329
:105A530021EDF0AA08AB097901122552026562858E
:105A6300820A85830BE0F8E50828F8E5093400F994
:105A730022E5082408F8E5093400F9EE241312613D
:105A830092124DFEE02408F022F074088E828F8378
:105A9300A3126FFBA3E022125EFEA3E0228A828B95
:105AA30083125AE212167C850882850983A3A31206
:105AB3005AE6E0F9EA8E828F83A3A3A3A3A3A3A349
:105AC300A3A3F0A3E91261AC125AE6A3A3E0F9EA97
:105AD300F8EE240B126192125EFEE022124BC3E039
:105AE3000231BAE0FA850882850983A3A3A322C001
:105AF30082C0837AE47B0479E21224747AE47B041F
:105B0300025981C082C083900472126401025981D8
