:020000040000FA
:060000000212590207D5AF
:03002B00021208B6
:03003300020E6852
:030043000210891F
:03004B00020F5E43
:030053000207277A
:03005B00020F6D24
:03006300020F7910
:03006B00020E4E34
:03007B00020DDB98
:1000830002077101010503010300030003000300DC
:100093000300030003000300030005000A0014002B
:1000A30028004F009E0000004017401740174017DC
:1000B3000216FC154017A5240000000007250000C8
:1000C30000000C0000000C00010000961800000066
:1000D3000000002619000000000000000032009418
:1000E30005FF010101000E0E0000005E0EE803642F
:1000F300006400B8010202000004000501071E02AB
:10010300051E03B80B01FF220202020605F30435A4
:100113003F000080BF0000803F1872313F2292D41D
:100123003EDD9B2A3F04000040D85BDE3E30313287
:100133003334353637383941424344454600286E17
:10014300756C6C20706F696E746572290030313282
:1001530033343536373839616263646566003F3F4F
:100163003F00F9021550B743BA510000204100E7A0
:10017300DB2E0000A04010000000080000000A0071
:10018300000012127860461212A5603DE9687008FB
:10019300F618F618F618F622748067F71201B909F3
:1001A3000909748067F7221212A5601D1212787074
:1001B30005191919801A12110B701F121120C3701F
:1001C30003E6673319191940071818182208080895
:1001D30074FFF618F618F618F6221211206017129B
:1001E30012CC702192F01212D67019501720F0140D
:1001F300080808090909E7F61819E7F61819E7F6D0
:100203001819E7F6221212D660E6E869701F08088B
:10021300E62480F608E436F618547FB47F0CE654DF
:10022300806007F6E418F618F622181822E9C6CCFF
:1002330008C6CD08C6CE08C6CFC0E0E8C0E0EAC015
:10024300E0EBC0E009E9F809E7FA09E7FBE6F9188A
:10025300E6F8C3EC98ED99EE9AEBC2E7F5F0EFC23E
:10026300E795F0500E600CEBCFFBEACEFAE9CDF93F
:10027300E8CCF8EAA2E7D2E7FAEB33FB13F5F0EEAA
:10028300A2E7D2E7FEEF33FFC5F013A2E730E601A2
:10029300B313C5F0C3C0E0C0F07F00C39BFB605B3A
:1002A3009418600C401AD0E023F9D0E0F8020388D8
:1002B3008AF0E9486003D2F0E4AFF0FAF9F8803B42
:1002C300EB30E40D89F0EA6003D2F0E4AFF0F9CA51
:1002D300F8EB30E30D88F0EF6002D2F0AFF0E4CA40
:1002E300C9F8EB54076014FBC3EA13FAE913F9E8FE
:1002F30013F8EF135002D2E0FFDBEDD0E0C0E030A3
:10030300E739C3E49FFFF5F0EC98FC42F0ED99FD6B
:1003130042F0EE9AFE42F0D0E0F9D0E0F8E5F0606A
:100323007AE923F9EE20E742D8028067C3EF33FF6F
:10033300EC33FCED33FDEE33FE80EAEC28FCED39C3
:10034300FDEE3AFED0E023F9D0E0F84002801BC373
:10035300EE13FEED13FDEC13FCEF135002D2E0FF9E
:1003630008B800067F7F74FF802EEF3350178CF0A0
:1003730020F00260100CBC000C0DBD00080EBE0086
:100383000408E860DFE933E813FFEE2313FE4F4D63
:100393004C8008E95480FFE4FEFDFCEE33EF33F4B8
:1003A3007004FCFD7E80D0E0FBD0E0FAD0E0F8D012
:1003B300E0CFC618CEC618CDC618CCC6F922121285
:1003C300A5700418181822121278700D74FFF6180D
:1003D30019F61819F61819F622E7548066F6121260
:1003E300D6700F1212CC70F014F608F608F608F661
:1003F30080D11212CC700CF608F608768008E64419
:100403007F80EC121123700C12110E60BFE6548032
:10041300F6E480BB12110E700519191980A5E8695D
:10042300700C763F18768018F618F6E8F922E6CDB8
:10043300C0E018ECC0E0E633CD33CDD313F6E719B3
:10044300FCE7191933CC33C3947F400ECD9D502460
:1004530008E65480F6E418F6800FF4043D145014B3
:1004630008E6447FF6187680E418F618F6D0E0FC28
:10047300D0E0FD22CCD313CCFD18E4C6CBC0E018EA
:10048300E4C6CAC0E00808ED08C633E613F618E46C
:1004930033C675F003C3CA97CA09CB97CB199C40DF
:1004A300047D08802EBD000302056A16B6FF05060B
:1004B30006081618C3CA33CACB33CB33CA27CA09B3
:1004C300CB37CB193CC37D08803E187D0820E75C01
:1004D300C633C6CA33CACB33CB33DDF1D5F0EB30E9
:1004E300E77BCA97CA09CB974ACB199C406F4B70DD
:1004F30025E620E0218066187D08C3CA97CA09CB88
:1005030097CB199CD3C633C6CA33CACB33CB33502C
:10051300C9DDE7D5F0E1D3E4C636C608C636C6085A
:10052300C636C608C636C61818188031C3CA97CA55
:1005330009CB97CB199CB34097C633C6CA33CACBF2
:1005430033CB33DD34D5F02EC6A2E0C640C8CA276C
:10055300CA09CB37194A70BECB3CB480B90808E648
:100563003308E633601F181818D0E0FAD0E0FBD048
:10057300E0FCD0E0FD22187D08CA27CA09CB37CB9F
:10058300193CD3808013F618E4B67F11F618B6FF32
:100593000EF618C60470D20808768080CAF618F6DC
:1005A30018F680C5001212A5604F1212786012E788
:1005B300548066F612110B70111212CC703B0909AC
:1005C30009F4F618F618F618F6221211207015120F
:1005D30012D608080860EAE6447FF618768018E425
:1005E300F618F6221212D660161212CC7012E4F626
:1005F30008F608F608E65480F609090918181822BF
:10060300EAC0E0EBC0E0ECC0E0EDC0E0E687F0A4B8
:10061300FBACF008E687F0A42CFCE435F0FA1809EB
:10062300E687F0A42C4B60027401CA35F0FCE43376
:10063300FB09E687F0D2F7A42CCB35F0FC1908E6CA
:1006430087F0A42BCC35F0FBE433FD0819E687F0E3
:10065300D2E7A42C4ACB35F0CD3400FC09E687F071
:10066300D2E7A42DCC35F0FDE433FA0918E687F080
:10067300D2F7A42CCD35F0CA3400FC08E687F0D2BB
:10068300E7D2F7A42ACC35F07A7E20E70B0ACB33E6
:10069300CBCD33CDCC33CC33CB3350147004ED30CE
:1006A300E00ED2F1E4CD3DCDCC3CCC3B5005DA0598
:1006B300C2F1EB547FC63308E63392F0FBE733090C
:1006C300E733C39A502D2B70190C0D4C4D70151830
:1006D30006E608C333700D20F10AA2F013F6E418FE
:1006E300800B4024E4F630F002768018F618F618F2
:1006F300F68024D33B14501074FFA2F013F618763F
:1007030080E418F618F6800FA2F013F618E6330308
:10071300F618ECF618EDF6D0E0FDD0E0FCD0E0FBE7
:10072300D0E0FA22C0E074F2120AE8E5A7FAE5A1E4
:10073300FBEA5B54106008121EB453A1EF802AEA4F
:10074300A2E0C0D0EBA2E092F01211A9158182F0D1
:100753005017906198E0FA901173E0C39AA2D265A2
:10076300D0335002EAF053A1FE7F01020B9FC0E099
:1007730074F2120AE89061A4E0FA759B00E5915ABD
:10078300540860087591F7121EF6802AE5915A54B1
:100793001060087591EF121EFC801BEAA2E0C0D026
:1007A300E591A2E092F01211A9158182F05007E0C1
:1007B300C2E0F012201C9061A3E0FAE5E95A540468
:1007C300600E121FF275E9FB906193E0A2E640F21E
:1007D3008097C0E074F2120AE89061A5E0FAE5BFE1
:1007E3005A5404600653BFFB12203402076CC3E45F
:1007F30098F8E499F91208328026C3E49AFAE49B44
:10080300FBE920E7E9120832E498F8E499F922C3F6
:10081300E498F8E499F9120832E498F8E499F9C3F2
:10082300E49AFAE49BFB22EB20E7CFE920E7E0B967
:100833000010BB0008E88AF084F8AAF022E4FBC8A1
:10084300FA22EB70227B10C833C8C933C93350076F
:10085300C39AC3DBF280069A50012ADBEAC833F459
:10086300C8C933F4C9FA2275F008E4C833C8C933D8
:10087300C933C99AC99B5004C92AC93BD5F0ECFBBB
:10088300C833F4C8E4C9FA221208CB20F01430E7C5
:100893002B74FFFCFBFA747F8022E4FCFBFA748068
:1008A300801AB48008BC00F2BB00EF800F50EBF954
:1008B300E4C39AFAE49BFBE49CFCE499C6CC18C617
:1008C300CB18C6CA18C6F922E4C9C608CAC608CBDB
:1008D300C6D3330308CCC63392F0C3947F402E941F
:1008E300184019C9B90704CACBCC225025C309CA79
:1008F30033CACB33CBCC33CC33D9F422F4600DC918
:10090300CCC313CB13CBCA13CAD9F6CC22E4FCFB5A
:10091300FA2214FCFBFA22080808EAC0E0EBC0E064
:1009230086F0E7A4FA180986F0E7A42AFA180986DC
:10093300F0E7A42AFA180986F0E7A42AFA1986F040
:10094300E7A4FBE5F02AFA190886F0E7A42BFBE5F8
:10095300F03AFA190886F0E7A42BFBE5F03AFA1807
:10096300180986F0E7A4C5F02BFBE43AFA1908E767
:10097300C5F0C6A426F6E5F03BFBE43AFA1886F088
:10098300E7A4F6E5F00826F6E43B08F6E43A08F6B1
:10099300D0E0FBD0E0FA22080808E630E711121194
:1009A300351209B2080808C64480C6181818221858
:1009B3001818E9799EC608CAC608CBC608CCC6C3B0
:1009C30070207996CACBCC7019798ECBCC70137901
:1009D30086CC700EF9802ACA33CACB33CBCC33CC46
:1009E300331930E7F2CCCBCA3350147004EA30E049
:1009F3000DE4CA3ACACB3BCBCC3CCC500209C3E989
:100A030013C6CC182313C6CB18C6CA18C6F922E4DA
:100A1300CFC0E0E4CEC0E0E4CDC0E0E4CCC0E075FC
:100A2300F020C3E633F608E633F608E633F608E6C5
:100A330033F6181818EC33FCED33FDEE33FEEF33C9
:100A4300FFC3EC9709ED9709EE9709EF9719191969
:100A5300400FFFEC97FC09ED97FD09EE97FE19197E
:100A630006D5F0BEECF709EDF709EEF709EFF71934
:100A73001919D0E0FCD0E0FDD0E0FED0E0FF222544
:100A830010C582C0E0E51134FFC583C0E0E510C3A3
:100A9300958224F8F8E4C5A8858311858210C5A83A
:100AA300E8CEF0A3E520F0A37808E608F0A3DEFA89
:100AB300EFF0A3E58124FAF8E608F0A3E608F0A333
:100AC300E608F0A30808E608F0A3E608F0A31581FA
:100AD3001581D0E0FED0E0F8158115811581E8C0BD
:100AE300E0EEC0E022C0D02510C582C0E0E511349D
:100AF300FFC583C0E0E510C3958224F310AF0885DA
:100B030083118582108008858311858210D2AFC836
:100B1300F0A3E9F0A3EAF0A3EBF0A37908E709F067
:100B2300A3D8FAECF0A3EDF0A3EEF0A3EFF0A3D07B
:100B3300E0F0A3D0E0F0A3D0E0F0A3E520F0A3E53C
:100B4300F0F0A3221212C1B90003020B89E490044E
:100B5300007851790F8002F0A3D8FCD9FA90125093
:100B6300AA82AB83900086780079018015E493A371
:100B7300AC82AD838A828B83F0A3AA82AB838C82FF
:100B83008D83D8E9D9E775825F7583E07402120D0E
:100B93001C7582527583237400120D1C8511838585
:100BA3001082E0C0E0A3E0F9A3E0FAA3E0FBA3789E
:100BB30008E0F608A3DFFAE0FCA3E0FDA3E0FEA350
:100BC300E0FFA3E0C0E0A3E0C0E0A3E0F5D0A3E032
:100BD300F520A3E0A3F5F0E4C5A885831185821071
:100BE300C5A8D082D083D0E0F8D0E0321212A5603D
:100BF3001C12127860171212D670071212CC7001F1
:100C0300D322C0D01212CC7006D0D0B322C3223369
:100C1300D0D0501430E0F6C3E7960809E7960809E8
:100C2300E7960809E796B32220E0D5E6970809E698
:100C3300970809E6970809E697B3221212A5601BE5
:100C430012127860161212D670071212CC600CB30F
:100C530022C0D01212CC7005D0D022C32233D0D000
:100C6300501330E0EBC3E7960809E7960809E796C7
:100C73000809E7962220E0E4E6970809E6970809C1
:100C8300E6970809E69722D083D082ECC0E0EDC056
:100C9300E0E493A3FCE493A3FDED4C600D120D5E21
:100CA300EC24FFFCED34FFFD80EFE493A3FCE4931D
:100CB300A3FDED4C600D120F09EC24FFFCED34FF96
:100CC300FD80EFD0E0FDD0E0FCE493A3C0E0E4932B
:100CD300C0E022D083D082E9C0E0E493A3C386F0CE
:100CE300C5F095F0F908E493A386F0C5F095F0708C
:100CF3000BE493A3C3994005E9048002A3E475F0D0
:100D030002A42582F582E5F03583F583D0E0F9E48A
:100D130093A3C0E0E493C0E022F5F0E59F5407C03D
:100D2300E0E59F54F845F0F59FE473859FF053F099
:100D3300F8D0E045F0F59F22D083D082E59F540799
:100D4300C0E0E493C0E0740193C0E07402935407DD
:100D5300F5F0E59F54F845F0F59F22C0E0C3E49316
:100D630096087401939618400FE49366700808740C
:100D73000193661870007019A3A3C3E493960874D3
:100D830001939618A3A3400DD0E0D0E0D0E0020C6D
:100D9300C6A3A3A3A3A3A3D0E022851183851082B6
:100DA300E0A3FEE0A3F5207808E0A3F608DFFAE06D
:100DB300A3FFE0A3C0E0E0A3C0E0E0A3C0E0E0A3A2
:100DC300C0E0E0A3C0E0E4C5A8858210858311C517
:100DD300A8D083D082020D2EC0E074F2120AE8E597
:100DE3008AA2E250297401900DC7F07C067D007A37
:100DF300E67B807900121E427A027B00900DCEE0E2
:100E0300F91219DA7A647B00121AF4538AFBC2EBE3
:100E13007F01020B9FD083D082C5F0E493A3C5F07A
:100E2300C395F0F5F0E493A3C395F04005E5F00412
:100E33008001E475F002A42582F582E5F03583F59F
:100E430083E493A3C0E0E493C0E022C0E074F21211
:100E53000AE8E589A2E15003121D94758900C2C511
:100E63007F01020B9FC0E074F2120AE8E58BA2E057
:100E73005003121D94758B00C2E880E4740480044F
:100E830074028000CCC0E0EDC0E0E510C39CCCADA3
:100E93001150011D10AF068C108D1180068C108D22
:100EA30011D2AF120FA7D0E0FDD0E0FC2274028074
:100EB30000CCC0E0EDC0E0E510C39CCCAD11500107
:100EC3001D10AF068C108D1180068C108D11D2AFC2
:100ED300120F85D0E0FDD0E0FC221212A56025128E
:100EE300127860201212D670030212CC080808E7A9
:100EF3006670101819E766700A1819E76670041807
:100F030019E76622F422C0E0C0F088F0E49366702B
:100F1300080874019366187000A8F0A3A3700BD09F
:100F2300F0D0E0D0E0D0E0020CC6A3A3D0F0D0E034
:100F330022D083D082CCC0E0E493A36006120FE7F3
:100F43001470FAE493A360061210A01470FAD0E0B0
:100F5300FCE493A3C0E0E493C0E022C0E074F21287
:100F63000AE8121DF47F01020B9FC0E074F2120A1B
:100F7300E8121DFA80EFC0E074F2120AE8121E00B4
:100F830080E3CAC0E0E493A3C582CCC582C583CD08
:100F9300C583F0A3C582CCC582C583CDC583DAE5FD
:100FA300D0E0CA22CAC0E0E0A3C582CCC582C58313
:100FB300CDC583F0A3C582CCC582C583CDC583DAF5
:100FC300E6D0E0CA2270090808082260161818182B
:100FD300C6C333C608C633C608C633C608C633C637
:100FE300D5E0EA22C0E0E493A3D39C5010E493A39A
:100FF300C39C400AD0E0D0E0D0E0020F51A3A3A3EA
:10100300D0E0227404800A740380067402800274A0
:1010130001C0E0F404121021D0E01212B422251012
:10102300F58210AF08F510400215118008F5104045
:10103300021511D2AF85118322C0D0251010AF083D
:10104300F510500205118008F51050020511D2AFBA
:10105300D0D022BB0102E722C082C08389828A8367
:10106300BB0003E08002E493D083D08222601608A1
:101073000808C6C313C618C613C618C613C618C6AF
:1010830013C6D5E0EA22C0E074F2120AE8C2C0E552
:10109300D1A2E45003121E2A7F01020B9FC0E0E499
:1010A30093A36C7009D0E0D0E0D0E0020F51A3A36A
:1010B300D0E022251010AF08F5104002151180086A
:1010C300F51040021511D2AF22C3E09608A3E096B3
:1010D30008A3E09608A3E096A2D265D03322C3E723
:1010E300960809E7960809E7960809E796A2D265E4
:1010F300D03322E066701008A3E066700A08A3E00C
:1011030066700408A3E06622181818E608460870FB
:101113000AE608C3337005E633F4220822191919C5
:10112300E7094709700AE709C3337005E733F42277
:101133000922181818E4C396F608E496F608E4960C
:10114300F608E496F622C3E096F008A3E096F008CA
:10115300A3E096F008A3E096F022E647F60809E636
:1011630047F60809E647F60809E647F622E627F6B2
:101173000809E637F60809E637F60809E637F622DE
:10118300E026F608A3E036F608A3E036F608A3E067
:1011930036F622E026F008A3E036F008A3E036F0A6
:1011A30008A3E036F022C0E0E8C0E0E58124FCF8C3
:1011B300E6A2E7D0E0F8D0E022700422600D18C662
:1011C300C333C608C633C6D5E0F41822E657F6087B
:1011D30009E657F60809E657F60809E657F622E046
:1011E30056F008A3E056F008A3E056F008A3E05633
:1011F300F022E056F608A3E056F608A3E056F608F8
:10120300A3E056F622C0E074F2120AE8C2C7121F26
:10121300387F01020B9FC3E7960809E7960809E7A1
:10122300960809E79622C6F4C608C6F4C608C6F4AB
:10123300C608C6F4C622600D08C6A2E713C618C6C0
:1012430013C6D5E0F322C3E09608A3E09608A3E013
:101253009608A3E0962275D000758140751000753D
:10126300110400020B47600C08C6C313C618C6134B
:10127300C6D5E0F422E7094709C3134709336002DF
:10128300E733F422E6F008A3E6F008A3E6F008A3A8
:10129300E6F022E0F608A3E0F608A3E0F608A3E0F0
:1012A300F622E6084608C3134608336002E633F421
:1012B30022CAC0E0E6F0A308DAFAD0E0FA2274F812
:1012C30055C74401F5C7790122E7C33319471947C5
:1012D300194722E6C333184618461846222510F547
:1012E30082E43511F58322120D3B9AAC01120D3BBA
:1012F30009AD01120D3B7DAE01120D3B99AE0112FA
:101303000D3BFBAE01120D3B9BAF01120D3BDDAF5D
:1013130001120D3B7AB001120D3B36B101120D3BA8
:1013230098B101120D3B07B201120D3B5AB20112E3
:101333000D3B93B201120D3B67B301120D3B87B412
:1013430001120D3BDEB401120D3B27B501120D3B1B
:101353004FB501120D3BD0B501120D3B4EB6011234
:101363000D3BB7B601120D3BC8B601120D3B4DB78D
:1013730001120D3BF2B701120D3B34B801120D3BC4
:10138300BAB801120D3BEDB801120D3B2EB9011293
:101393000D3BAABA01120D3B60BC01120D3B48BDC7
:1013A30001120D3B2ABF01120D3B34BF01120D3B4D
:1013B3003EBF01120D3B48BF01120D3B52BF01124C
:1013C3000D3B5CBF01120D3B66BF01120D3B8ABF93
:1013D30001120D3BAEBF01120D3B07C001120D3BC5
:1013E3005EC001120D3B7CC001120D3B01C1011215
:1013F3000D3B3DC101120D3B7DC101120D3B042785
:1014030000120D3B502700120D3B002900120D3B2B
:101413003E2900120D3BD72900120D3B0B2A001267
:101423000D3B4F2A00120D3B672B00120D3BDC2BAB
:1014330000120D3B962E00120D3B842F00120D3B24
:10144300293000120D3B3E3100120D3B683400126F
:101453000D3BF53400120D3B323500120D3BF835D0
:1014630000120D3B953600120D3BDF3600120D3B8B
:101473000C3700120D3B2E3700120D3B443900127E
:101483000D3B053A00120D3B653A00120D3BC83A7D
:1014930000120D3B913B00120D3BC63B00120D3B6E
:1014A3001A3C00120D3B4F3C00120D3B9F3C0012B7
:1014B3000D3BFA3C00120D3B7E3D00120D3BAC3E52
:1014C30000120D3B673F00120D3B8B4000120D3B9A
:1014D300174200120D3BA74200120D3B704300124E
:1014E3000D3BF94300120D3B404400120D3BB64542
:1014F30000120D3BCA4500120D3BE74500120D3BA0
:10150300114600120D3B1D4600120D3B3B460012D7
:101513000D3B024700120D3B2C4700120D3B394790
:1015230000120D3BC94700120D3BAD4800120D3BA5
:10153300A94900120D3B3C4A00120D3BCC4A001254
:101543000D3BE34A00120D3B074B00120D3B254BAD
:1015530000120D3B694B00120D3BC34B00120D3BB8
:10156300EB4C00120D3B094E00120D3B684E00126E
:101573000D3B204F00120D3B464F00120D3B3950DF
:1015830000120D3B585000120D3BD45000120D3B7E
:101593003C5100120D3B685100120D3BB351001238
:1015A3000D3BE75100120D3B585200120D3BB35255
:1015B30000120D3B838303120D3BCE8303120D3BBD
:1015C300135400120D3B5E5400120D3BB95400122C
:1015D3000D3B0A5500120D3B255500120D3B5B5583
:1015E30000120D3B7C5500120D3B865500120D3B3E
:1015F3009B5600120D3BB95600120D3B29570012A2
:101603000D3B3C5700120D3B4A5700120D3BEB5765
:1016130000120D3BBF5800120D3BDA5900120D3B6F
:10162300565A00120D3B605A00120D3BD35A00125A
:101633000D3BEA5A00120D3B2C5B00120D3B6A5B1B
:1016430000120D3B995B00120D3BD05B00120D3B6A
:10165300EE5B00120D3B125C00120D3B535C00125B
:101663000D3B3E5D00120D3B845D00120D3BAF5DF3
:1016730000120D3B1C5E00120D3B435E00120D3B3E
:10168300885E00120D3B965E00120D3BEF5E00126A
:101693000D3B2C5F00120D3B735F00120D3BA45FEB
:1016A30000120D3BC75F00120D3BD25F00120D3BD2
:1016B300F05F00120D3BAC6000120D3BB6600012F0
:1016C3000D3BF56000120D3B0B6100120D3B1461E5
:1016D30000120D3B586100120D3B6C6100120D3B73
:1016E300576200120D3B6A6200120D3B7F620012CB
:1016F3000D3B276300120D3B736300120D3B2964FE
:1017030000120D3B346400120D3B826500120D3B49
:10171300AE6500120D3BEF6500120D3B096600122A
:101723000D3B406600120D3BA36800120D3B2B6975
:1017330000120D3BAB6900120D3BEE6B00120D3B2B
:10174300FE6B00120D3B016C00120D3B0D6C001281
:101753000D3B216C00120D3B406C00120D3B736C72
:1017630000120D3B386D00120D3B9F6D00120D3BB7
:10177300036E00120D3B8D6E00120D3B3E6F001287
:101783000D3B656F00120D3BF56F00120D3B0170B1
:1017930000120D3B307000120D3B527000120D3BD6
:1017A300797000120D3BDE7000120D3B9172001236
:1017B3000D3B947200120D3BFE7200120D3BF17350
:1017C30000120D3BD67400120D3B617500120D3BE8
:1017D300A47600120D3B677700120D3BA077001231
:1017E3000D3BD17700120D3BDA7700120D3BBE782B
:1017F30000120D3B4E7900120D3BEC7900120D3BAC
:10180300AC7A00120D3B257B00120D3B547B00127A
:101813000D3B917B00120D3BE7F401120D3BF5F4F8
:1018230001120D3B71F501120D3BA7F501120D3BA2
:10183300F2F501120D3B1CF801120D3B16FA0112D1
:101843000D3B03FD01120D3B31FD01120D3B53FD19
:1018530001120D3BC0FD01120D3BFCFD01120D3BBE
:101863002AFE01120D3B67FE01120D3B71F40212B9
:101873000D3B8AF402120D3BD5F402120D3B20F509
:1018830002120D3BC3F502120D3B4BF102120D3B4D
:1018930091F202120D3BFACC02120D3B79CD0212EA
:1018A3000D3B84CD02120D3BABCD02120D3BBFCDE0
:1018B30002120D3B34CE02120D3B64CE02120D3BDD
:1018C30053CF02120D3B00D002120D3B5ED0021229
:1018D3000D3BAED002120D3BE3D002120D3B3BD1C8
:1018E30002120D3B76D102120D3BE3EB02120D3BCC
:1018F300FAEB02120D3B95EC02120D3B44ED021282
:101903000D3B71ED02120D3BE9F202120D3B77F331
:1019130002120D3B81F302120D3BA6F302120D3BA3
:1019230055F402120D3B62A302120D3BFEA30212F9
:101933000D3B2FA402120D3B71A402120D3B9BA47D
:1019430002120D3BBBA402120D3B07A502120D3B75
:1019530056A502120D3BA8A602120D3BC9A6021200
:101963000D3BEAA602120D3B42A702120D3BF4A760
:1019730002120D3B47A802120D3BB1A902120D3B07
:101983004DAA02120D3B76AB02120D3B01B20212BD
:101993000D3B47B202120D3BF0B202120D3B16B3E0
:1019A30002120D3BDFB302120D3BE8B302120D3BF3
:1019B3003EB402120D3B69B402120D3BCEB40212C7
:1019C3000D3B3FB502120D3B7FB502120D3BE4B553
:1019D30002120D3B72B602120D3BD2B602120D3B40
:1019E30004B702120D3B14B702120D3B24B70212C7
:1019F3000D3B43B702120D3BFDB702120D3BF8FD41
:101A030002120D3BC6ED02120D3B25EE02120D3BF9
:101A130051EE02120D3B54EF02120D3B99C301121A
:101A23000D3B7DC401120D3BB8C401120D3B70C6C2
:101A330001120D3BB4C601120D3B4FC801120D3B01
:101A430096C801120D3B72C901120D3BC1A70112C9
:101A53000D3B99CA01120D3BF1CA01120D3B34CB68
:101A630001120D3BE4CC01120D3B9BCE01120D3B49
:101A7300D1D001120D3BDBD001120D3B38D1011245
:101A83000D3B8DD101120D3BCBD401120D3BE8FF71
:101A930001120D3B208403120D3B0DD802120D3BA6
:101AA30025D802120D3BC1D802120D3B02D90212F6
:101AB3000D3B1FD902120D3B45D902120D3B55AC0C
:101AC30001120D3BB2D902120D3BDCDA02120D3BBF
:101AD300C2FA02120D3B2FFB02120D3B4AFB02120C
:101AE3000D3B8FFB02120D3BB5FB02120D3BCFFBEF
:101AF30002120D3B92AB02120D3BB0AB02120D3B37
:101B0300C7AB02120D3B6DAC02120D3BA0AC02122F
:101B13000D3B96AD02120D3BDAAD02120D3BAEAE9C
:101B230002120D3BE9AE02120D3BD0AF02120D3B88
:101B330044B002120D3B99B102120D3BB78F021252
:101B43000D3B059002120D3BA39002120D3B2C910D
:101B530002120D3B7B9102120D3BD89102120D3BF9
:101B6300EC9102120D3BB89302120D3B3794021213
:101B73000D3B619402120D3B049602120D3B1B9622
:101B830002120D3B5C9602120D3B969602120D3B20
:101B9300EF9602120D3B059702120D3B8897021236
:101BA3000D3B199902120D3B499902120D3B729993
:101BB30002120D3BD29902120D3BEC9902120D3B1E
:101BC300EF9902120D3BF29902120D3B649A021235
:101BD3000D3B8D9A02120D3BF49A02120D3B279B8B
:101BE30002120D3B408103120D3B4C8103120D3B4E
:101BF300948103120D3B008002120D3B2B800212D5
:101C03000D3BD68002120D3B3D8102120D3BA0819C
:101C130002120D3BEC8102120D3B5A8202120D3B64
:101C2300ED8202120D3B638302120D3BA38302126A
:101C33000D3BBE8702120D3B4E8902120D3B778985
:101C430002120D3B5B8A02120D3B3F8B02120D3BCE
:101C5300038D02120D3B6E8D02120D3B21E5011225
:101C63000D3BDBE501120D3B4BE601120D3B63E639
:101C730001120D3BF4E601120D3B2FE701120D3B60
:101C830004E801120D3B30E801120D3BA8E80112F4
:101C93000D3BF4E801120D3B55E901120D3B6CEAD3
:101CA30001120D3BEEEA01120D3B57EB01120D3B06
:101CB300FBEC01120D3B9CED01120D3B31EE0112C9
:101CC3000D3B90EE01120D3BF9EE01120D3B53F06B
:101CD30001120D3B26F201120D3BC7F201120D3B1F
:101CE30092F301120D3BDC8403120D3BE5840312D6
:101CF3000D3BF5E202120D3B5DE302120D3B0AE4DC
:101D030002120D3B70E402120D3BE1E402120D3BA3
:101D130015E102120D3B6EE102120D3B37F7021281
:101D23000D3B7CF702120D3B30F802120D3B8EEF98
:101D330002120D3B9CEF02120D3BF0FF02120D3B12
:101D4300EA8403120D3B008003120D3B1080031243
:101D53000D3B2E8003120D3B968003120D3B6AF858
:101D630002120D3B91F802120D3B1AF902120D3BC0
:101D730081F902120D3BDD9D03120D3BF6FC0212AD
:101D83000D3B14FD02120D3B77FD02120D3B82FD4C
:101D930002120D3BC7FD02120D3B9AF902120D3BD5
:101DA300ABF902120D3B0FFA02120D3B29FA021294
:101DB3000D3B3BFA02120D3B50FA02120D3B7CFA2B
:101DC30002120D3B8BFA02120D3B5DC802120D3B52
:101DD3006BC802120D3BE9C802120D3B0FCA021277
:101DE3000D3B95CC02120D3BDCF502120D3B14F6B4
:101DF30002120D3B38F602120D3B96F602120D3B12
:101E0300F8F602120D3B20C302120D3B9FC30212D0
:101E13000D3B52C402120D3BC3C402120D3BD5C588
:101E230002120D3B51C702120D3BB1C702120D3B0B
:101E3300FFC702120D3B08C802120D3B1EC8021257
:101E43000D3B30C802120D3B42C802120D3B4BC87A
:101E530002120D3BA7BD02120D3BFABD02120D3B50
:101E63007AC002120D3BB2C002120D3BD7C0021260
:101E73000D3BF0C002120D3B09C102120D3B44C2DF
:101E830002120D3BE1C202120D3BD9E902120D3BD6
:101E93001CEA02120D3B2DEA02120D3B5BEA021211
:101EA3000D3B8BEA02120D3BC6EA02120D3B36EBE9
:101EB30002120D3B69EB02120D3BB3DD02120D3B27
:101EC300DEDD02120D3B25DE02120D3B37DE021270
:101ED3000D3B53DE02120D3BBBDE02120D3BC4DE93
:101EE30002120D3B25DF02120D3B49DF02120D3BAF
:101EF30013E002120D3B20E002120D3B31E002120F
:101F03000D3BB68203120D3B038303120D3B96D1A7
:101F130002120D3B8FD202120D3BA4D202120D3BD3
:101F2300B7D202120D3BD1D202120D3BF0D20212F4
:101F33000D3B6FD302120D3B2FD402120D3BA1D4E4
:101F430002120D3BFED402120D3B0ED502120D3BC5
:101F5300647F00120D3B897F00120D3BB27F00129C
:101F63000D3BDA7F00120D3B6DE502120D3B86E55A
:101F730002120D3B92E502120D3BA6E502120D3B48
:101F8300CAE502120D3BD6E502120D3BE5E502124E
:101F93000D3BF8E502120D3B2DE602120D3B67E601
:101FA30002120D3B9CE602120D3BEBE602120D3BC7
:101FB30037E702120D3B4FE702120D3B59E70212BE
:101FC3000D3B6AE702120D3BAEE702120D3BD883CD
:101FD30003120D3B2A9B02120D3B569B02120D3B33
:101FE300729B02120D3B859B02120D3B9B9B0212BF
:101FF3000D3B069C02120D3B409C02120D3BAF9F12
:1020030002120D3BCCA002120D3BFDA002120D3BB0
:102013005DA102120D3B40A202120D3B68A2021207
:102023000D3B7DA202120D3B8DA202120D3BCEA2EF
:1020330002120D3B23A302120D3B39A302120D3BE7
:10204300A5FE01120D3BC0FE01120D3BEAFE01127B
:102053000D3B07FF01120D3B2FFF01120D3B51FFFB
:1020630001120D3B6AFF01120D3B99FF01120D3B5B
:10207300B4FF01120D3B668403120D3BD27B0012A9
:102083000D3BD97B00120D3BE67C00120D3B187D06
:1020930000120D3B3E7D00120D3B717D00120D3B86
:1020A300837D00120D3BBE7D00120D3B2E7E001280
:1020B3000D3B6B7E00120D3BB87E00120D3BE67E9E
:1020C30000120D3B067F00120D3BE9FB02120D3B94
:1020D300FBFB02120D3BF3FC02120D3BF9FE021255
:1020E3000D3B4FFF02120D3B8DFF02120D3BCEFF46
:1020F30002120D3B2EB802120D3B31B802120D3BFA
:1021030067B802120D3BADB802120D3BDAB80212EA
:102113000D3BFDB802120D3BD6B902120D3BF4B9CB
:1021230002120D3B74BB02120D3B93BC02120D3B1A
:10213300F4DA02120D3B19DB02120D3B62DB0212D1
:102143000D3B84DB02120D3BACDB02120D3BD2DBF9
:1021530002120D3BBFDC02120D3BC9DC02120D3B28
:10216300D6DC02120D3B8ADD02120D3B94DD021216
:102173000D3B9EDD02120D3B1DD502120D3B08D80F
:1021830002120D3B228303120D3BB4E702120D3BF7
:10219300CA8103120D3BA68403120D3BA0800312D8
:1021A3000D3BCA8003120D3B408203120D3B0DD53C
:1021B30001120D3BDAD901120D3B5FA701120D3B52
:1021C30099A601120D3BF0A501120D3B7AA5011250
:1021D3000D3B47A501120D3B35A501120D3B0DA586
:1021E30001120D3BEFA401120D3BDCAB01120D3BC1
:1021F300B0AA01120D3B25A401120D3B86A30112C7
:102203000D3B1AAA01120D3B7FA901120D3B37A208
:1022130001120D3BCC9F01120D3BD89E01120D3BC9
:10222300B09E01120D3B479E01120D3BEA9D011228
:102233000D3B979D01120D3BE99C01120D3BD99972
:1022430001120D3BA59901120D3B7C9901120D3B27
:10225300589901120D3BA29801120D3B4B980112A4
:102263000D3BBB9601120D3BB89601120D3B7895C1
:1022730001120D3B589501120D3BAE9401120D3B1B
:10228300269301120D3BDEA801120D3B81A801121A
:102293000D3B41A801120D3BED9201120D3BBE9285
:1022A30001120D3BBB9201120D3BAB9201120D3B90
:1022B30006A801120D3B9D9201120D3B8E92011255
:1022C3000D3B6D9101120D3BF19001120D3B7BD93A
:1022D30002120D3BDCA701120D3BBE9001120D3B18
:1022E300669001120D3B399001120D3B538D011283
:1022F3000D3B798C01120D3B0F8C01120D3BCF8BE3
:1023030001120D3BC38B01120D3B308B01120D3BB0
:10231300878A01120D3B348801120D3B1885011287
:102323000D3BE28401120D3B7A8301120D3B2D8399
:1023330001120D3B6E8201120D3B668101120D3BB2
:10234300C78101120D3BA08101120D3BFCC90100A5
:10235300000080FBE4730001363601010001020135
:102363000001030100010401060605020000070144
:1023730000340801000F090401010D0100FF0E08DC
:10238300000017020000190100FF1A0100011B01E0
:1023930000051C0100081D0200001F0100012001AF
:1023A3000001210200002301000F24020000260186
:1023B300000127010308280200FF2A0100072B015F
:1023C30002402C0100002D0100012E0100012F010C
:1023D30000FF30010B1C310800003A010008010125
:1023E300710101010101110101013101010101012A
:1023F3008001100161013B0014006301730172014C
:10240300620143010001130106013D01350004018E
:102413001201000100010001000104010401330164
:1024230033013C0144013201360000010001650122
:1024330000013500810100010501820183010001D2
:1024430003027102300160021102700201020202F2
:1024530002028002100261023A0041006302730229
:1024630072026202430200021302380000020002F9
:10247300040212020002000200020002040204022B
:10248300370037003C024402000239000002000218
:102493006502000235028102000205028202830204
:1024A300000203007100300160001100700031026E
:1024B300200350048000100061000000140063003A
:1024C3007300720062004300000013000600000066
:1024D30000000400120000000000000000000400DF
:1024E3000400370037003C024400000000000000F5
:1024F30000006500000035008100000005000000B9
:1025030083000000010371030103010301030103BD
:10251300010322030203010310030003000300036A
:102523000003000300030003420300032403060324
:1025330000030003040312032503230325032303DA
:102543000403040300030003000344030003000324
:1025530023030003650321003503810300030503FF
:1025630000030003000336000100060000000F0013
:1025730000000000000000000000000003FFFF0057
:10258300000403FFFF0000FFFF0FF4010005C40474
:102593000320000100000B00000000000000000306
:1025A300010100981C02000E1C0300141C04001AF5
:1025B3001C0500201C06002C1C1100441C14004A9E
:1025C3001C15003E1CFFFF0000030003000400086D
:1025D3000010001F003E007B00F600EC01D703AFA4
:1025E300075D0FB91E713D00005C168C16621668FC
:1025F3001686167A167416921698169E16AA166ED4
:102603001656165016D5C5C5B5A5A59585857575F8
:102613006565555545453535252515050A64140267
:102623003414054614073A140C22140D2E14FF001B
:10263300009C36063A703DD9404344AD47174B8161
:102643004EEA5100160F00000B150B020002220F79
:1026530032000006567777777777777777777777CC
:1026630077777777000102030405060708090A0B49
:102673000C0D0E0F40175217581726165E1720160B
:102683002C16B817D617DC17BE17CA17C4170003C2
:102693004948424D18172505020001191618161648
:1026A30015230300303017181921301B1D1F300C60
:1026B3000E020B040B0A0708000F303016181920FE
:1026C300231A1C1E3000383C3E363B3B352B432C33
:1026D3008016A416D017B016B616AC1764176A176F
:1026E300761770170005150D091008040000000087
:1026F300000000BE040A0E000400040C1005080FBD
:1027030004C082C083E99004B7F0E490046CF01233
:1027130020CA9004BBE4F0A3F09004B8F0A3F01235
:10272300157E1220D090043CE4F0A3F09004CBE09B
:102733007002A3E060099004CB12474B1223579019
:102743002702E493FA790212216602443974F212E1
:102753000A82EAFEEBFF74805FF9E47001E97063BB
:10276300EEA2E0507B900471E0640F700B790012CD
:10277300140AE960031228F674016EFAEFFB0228CB
:10278300E20BEB75F003A4241FF8E5F03426F98877
:10279300828983E493FA74FF6A602185088285093C
:1027A30083E06A70DCAA08AB0988828983A3E49377
:1027B300C0E0740193F583D082122357AA08AB09B2
:1027C3001219B09004B7E0F91219BC8A088B09EA10
:1027D3007001EB60047B0080A9EEFA74806F809D2A
:1027E300542070030228AE750A007C027D007A2013
:1027F3001228EB7C0079047A007B0012149A8A0871
:102803008B09800D740188828983F0850C08850DFE
:1028130009E5087002E509606D7C007904AA08AB3C
:102823000912149A8A0C8B0D750A01E50824041207
:102833004AAD24FFF0A3E034FF1248617002A3E025
:1028430070C9E5082409F8E5093400F9850882858B
:102853000983A3A3A3A3A3A3A3A3A3A3E0640170D6
:10286300A3850882850983A3A3A3A3A3A3E0540498
:102873007092740688828983F07AB7850882850905
:10288300831229C6808512146A7C0079017A007B41
:102893000012149AEA7001EB7009E50A70057A20B8
:1028A3001246F774206EFAEF02278074025FF9E490
:1028B3007001E9600A121578EEFA74020227E074D7
:1028C300045FF9E47001E9601212485712479079E6
:1028D30001122F7AEEFA74046F80CD7A007B000226
:1028E3003523EAFCEBFD7A017B009004B7E0F91293
:1028F3001AB2229012BA1245E112141C22C082C0ED
:102903008374EA1210B6851082851183AA82AB8381
:10291300794B12213C74081212E07402F07409120C
:1029230012E0AA82AB83795012213C74131212E095
:10293300124B8F12215A741602443674F4120A820F
:10294300EAFEEBFF7508018E828F83A3A3A3A3A3E3
:10295300A3E0544060098E828F83124FD680031206
:1029630014FA74FE6A700374FF6B60308E828F8377
:1029730012474B12474512154EE98E828F8360062C
:102983001229BFE480051229BF740112393FFAA34B
:10299300E0FB122160E9F509700580127509CDAAE3
:1029A300098E828F831229C6E96003750800A9087E
:1029B300EEFAEFFB121476A909023A00E0240D1295
:1029C300407422E0240C1229D1F912141622F812B1
:1029D3004079E02274F6120A82E9FEEAFF7A0F7B5D
:1029E300001219AAEA7001EB6019740C8A828B83B6
:1029F300F0EEA3A3F0EF8A828B83A3F012479F79B3
:102A03000080027910024786C082C083900471E07F
:102A1300640F7018EA7001EB601290046CE0FC74B0
:102A2300086C600574046C70031228E5024439F5E0
:102A330008EF3400F50922124878640222850882DF
:102A4300850983123F6190045DE0682274F0120AE5
:102A53008274FD1210B68A0A8B0BEA24021239160D
:102A63008A088B09EA7001EB7003022B59850A82ED
:102A7300850B83A3AE82AF83E064F16014E064CD81
:102A8300600FE0641A600AE064E96005E064E170E5
:102A93001E7900121476E96016850882850983A3DE
:102AA300A3A3A3A3A3E04420F0A3E0F0022B3E8E54
:102AB300828F83E0C0E074021212E0D0E0124AC8B1
:102AC300124DE21233F81246F1851082851183AA62
:102AD30082AB83700512139880031215368E828F92
:102AE30083E064F16055E064CD6050E0641A604BAC
:102AF300E064E16046E064F0604174021212E0E0D9
:102B0300FC74B76C60358508828509831245DD75D1
:102B13000C01780C121012ECF50C780C121012E563
:102B23000A240CF582E50B122E69123424FCA3E06F
:102B3300FD8A828B8312343E12103CE5082409F58A
:102B430082E509122A3A70037406F0850E82850F16
:102B530083E0F912147C12146A9012BE1228F974DD
:102B63000302488074F5120A82EAFEEBFF750A003D
:102B7300EE2409122E6D122BCB7003750A01122A53
:102B8300407003A3E0697006E50AD2E1F50A8E827C
:102B93008F83A3A3E0FAE50A6011EA7006E50AD27F
:102BA300E5801EE50AD2E6F50A8003EA6015EE2405
:102BB3001DF582EF3400122BD164016006E50AC2D1
:102BC300E0F50AA90A024B8A124989640222F583B5
:102BD300123A60F912153CE92274F0120A8274DB8E
:102BE3001210B6EAFEEBFFEE2404122E6DE0601025
:102BF3009012BCE07002A3E060069012BC1228F9A8
:102C0300EE2402122E5B74061212E0AC82AD8385B1
:102C1300088285098312341AFAA3E0FB1214D6EE54
:102C2300241BF582EF123D7774131212E0124790C2
:102C330074061212E0AA82AB83121428E98510826B
:102C4300851183F0740C1212E0E0601E741D1212E1
:102C5300E0E0FD74071212E0E0FC1245D77901129F
:102C630021E4E96003022E568014900454E0600EC0
:102C7300851082851183E0A2E14003022E56EE24E3
:102C830012F50AEF3400F50BEE242A122A32EE2451
:102C93002C122E66123137E0687003A3E069701DB1
:102CA300750C00780C121012780C121012EE242EF0
:102CB3001246EEF9122E7A12343E12103C740912A7
:102CC30012E0E0FA90045AE06A6003022E56740C94
:102CD3001212E0E07003022D9F122E7A1245DD12CC
:102CE300159C74011212E012474574011212E0E0C0
:102CF3007002A3E07003022E5674071212E0E0F88C
:102D0300850E82850F83E028F8A3E03400F9740D63
:102D130028F582E439F583E0FA74011212E0E02425
:102D230003122E916A601DEAF09080F77808121260
:102D33009674011212E012474B124DDEA3E50AF01E
:102D4300A3E50BF0790474071212E0E0FA850E8212
:102D5300850F83E02AFCA3E034008C82F583A3AAC9
:102D630082AB8312199E8A088B098C0A8D0B74011E
:102D73001212E0122E8A780C121296780C7908122D
:102D830012195003022E5690811F78081211837472
:102D9300011212E0122E8A780812128790046CE056
:102DA300FA74046A600874096A6003022E56851077
:102DB30082851183E0A2E55055EE242E1246EEC023
:102DC300E074031212E0D0E0F0EE242F1246EEC0BE
:102DD300E074041212E0D0E0F0EE24301246EEC0AC
:102DE300E074051212E0D0E0F0EE2424122E6612F5
:102DF3000E7F74071212E0AC82AD83740A1212E0E4
:102E0300AA82AB8312139E740412103C8045A2E67F
:102E1300504174231212E0123A5CFA74046A701877
:102E2300741D1212E0E06402702974061212E0AA03
:102E330082AB8312152A801B74076A7016741D12E5
:102E430012E0E06404700C74061212E0AA82AB83F1
:102E53001215247425024880F50EEF3400F50F2275
:102E6300EE240BF582EF1247B322F508EF3400F599
:102E730009850882F58322850882850983123EA885
:102E8300850A82850B83221249A0A3A3A322F812E9
:102E930029D22274F6120A8274F71210B68A088BAA
:102EA3000990046CE0FA74036A600D74016A6008A7
:102EB30074096A6003022F758508828B83A3AE822F
:102EC300AF83E06003022F5A7C007D007A027B000F
:102ED3001220D6E5082402124AA1123D7A90045D1D
:102EE30012479079531221427900122F7A90046C81
:102EF300E06409600990046A1245DD1215967401B5
:102F030012477A740490046CF074011212E0AA82DE
:102F1300AB83794A12213C74011212E0AC82AD8377
:102F23007A627B041220EE90045D123EA47A037B46
:102F3300001220D6900460123EA47A047B00122073
:102F4300D6900457E0A2E35004D2F08002C2F012FC
:102F530047601228F68018FC7D007A037B1012204C
:102F6300D68E828F83E0F9122F7AE490046CF012EC
:102F73001452740902478390046A1245E11213AA9A
:102F830022C082C08390043CE07002A3E0704190B1
:102F9300046CE0120F34000301A62F05B52F06C4FD
:102FA3002FD32F900444E07002A3E0607690044492
:102FB300806B900440E07002A3E06067900440805F
:102FC3005C900442E07002A3E06058900442804D9C
:102FD30090043CE07002A3E0600912368DFC74019A
:102FE3006C702379009004B8800909EA124CC6EB8F
:102FF300122E69123C157001EB70EF9004B8124564
:10300300DD1213A4801D74026C700512156C8013FD
:103013009004CDE07002A3E060099004CD12474B09
:1030230012235702443974F4120A8274FB1210B645
:103033008A088B091231267001EF70030231217463
:10304300028E828F83124B90795012213C85088225
:10305300850983A3858208858309E0600302310F14
:1030630090046A124FE4700374FF69602F74FE6862
:10307300700374FF696025851082851183E0687091
:1030830003A3E069601674EA850882850983123414
:10309300507A6A7B047950122142807085108285B0
:1030A30011831231371247907A5D7B0479531221D1
:1030B3003C90045D12478B7A607B04794B12213C70
:1030C3007A5F7B0479E112213C900471E0C3940F91
:1030D300502290045FE0C0E074021212E0D0E0F0EE
:1030E30074041212E07401F074021212E0AA82ABAB
:1030F30083122154750A00780A121012780A1210EA
:10310300129012D8E0F912343512103C85088285EA
:10311300098312340FF0740390046C1247967405FC
:103123000239FD7A0F7B001219AA8A0A8B0BAE0AA9
:10313300AF0BEE22123F6190046A2274F0120A82EE
:1031430074ED1210B68A828B83A31233FEEA24082D
:10315300FEEB124DF88E828F83123424FAA3E0FB28
:10316300121458851082851183E070688E828F83D4
:10317300E0C3940B405E850882850983A3A3A3A3C0
:10318300A3A3A3A3E06402704B90046CE0FAE508E8
:103193002409F50EE509122E5E74026A603B74067B
:1031A3006A603690043CE07002A3E0600712368D3B
:1031B3006401605574086A600574046A70167402C9
:1031C3001212E0E0F974071212E0AC82AD831245EB
:1031D300D712145E741302488090043CE07002A37B
:1031E300E07026750A00780A121012780A1210127B
:1031F3001233EF122E6912341AFCA3E0FD85088204
:1032030085098312343E12103C9004B8124FC390C8
:1032130004B8E0F50AA3E0F50B80378E828F83E0D4
:10322300F8A312341A687003A3E06970198E828FB1
:1032330083A3A3E0FAE508240DF582E5091246F11C
:103243006A70030232CA8E0A8F0BEE124CC6EF125B
:103253004FC0EE7001EF70C37A187B00121A108A08
:103263000C8B0DAE0CAF0DEE7001EF70030231D776
:103273009004B8E07002A3E070059004B8800AE5FA
:103283000A124CC6E50B122E69124FF78E828F83FA
:103293001247B8EE240C122E6674FFF0E48E828F70
:1032A30083A3A3A3A3A312435CA3A3A3A31234479F
:1032B300E4F0A3F0E508240B124AAD1233E51248FB
:1032C30061C41233E5A3F074011212E0123414A3A3
:1032D300F074021212E0123414F0E508240DF582A2
:1032E300E50912340CA3F012501D1248A6240DFA5E
:1032F300EF3400FB74021212E0E06401600E740705
:103303001212E0AC82AD831220EE80097C087D00AE
:1033130079FF12199874121212E0E0C0E0EE24153E
:10332300122E66D0E0F09012D8E0C0E01233EF1214
:1033330046F1FAD0E0C39A40030231D71233F812B0
:103343002E69A3E05480F9E47001E97009900E0539
:10335300E070030231D7EE2406F8EF124AB0FCEE18
:10336300240CFAEF3400FB74061212E0E0700EEC4A
:10337300705674041212E0E070060231D7EC601448
:1033830074051212E0E0C0E08A828B83E0FCD0E097
:10339300C39C5025850882850983124BA2124CC019
:1033A3001233EF1246F1C0E0122E63D0E0F0740541
:1033B3001212E0E08A828B83F074061212E0E0605E
:1033C30007740188828983F074041212E0E07003A9
:1033D3000231D774018E828F83A3A3A3A3A3F00228
:1033E30031D7540F8E828F83A3A3A322E508241021
:1033F300F582E50922E508240B80F5A3A312340422
:1034030022E0F508A3E0F509221247B312352EA3F3
:103413002212352E025243E0F9850E82850F83E096
:1034230022E0F98A828B83A3A3A3A3A3A3A3A3A3C9
:10343300E02290046A123EA89004601245E112153E
:103443000C740222A3F0EE24161247B022F07A5D28
:103453007B04795312345B221221427A607B047914
:103463004B1221422274F2120A8274F81210B68AA5
:103473000A8B0B8C0C8D0D8908851082851183AC0A
:1034830082AD837583807582DE7408120FA7F509F8
:10349300AC0AAD0B851082851183AA82AB83124DD2
:1034A300EA70037509019004B880158E828F83E05A
:1034B300650C7004A3E0650D6024EE2416122E66DD
:1034C300124FC3EE7001EF6020E50960DEAC0AAD78
:1034D3000BEE240DFAEF3400FB124DEA60DC8E8212
:1034E3008F83A3A3E0650870D1EEFAEFFB740802A3
:1034F300352074F7120A829004B8E0FAA3E0800C36
:10350300EA2416124FBD121A16EEFAEFFBEA700107
:10351300EB70ED9004B8E4F0A3F0023D2712103CE9
:103523007F06020D9DA312352EF022E002502C746B
:10353300F2120A82EAFEEBFF890B8C0C8D0D8E8250
:103543008F83E08C828D8312435CAE82AF83E01263
:1035530043F212393EC41243F21235EEE054038CA7
:10356300828D8312393CA2E2E492E08C828D831235
:10357300393B131313541F1243F2A312393BA2E72F
:10358300E492E08C828D83A3A3A3A31235EE8E086D
:103593008F09750A00780812100A7C087D00E50C73
:1035A3002407124D9B12103CEE2408FEEF3400FF5B
:1035B3008E088F09780812100A7C037D00E50C241D
:1035C3000F124D9B12103CE50C2412F8E50D34004C
:1035D300F9E50BC3940F400A8E828F83A3A3A3E064
:1035E3008001E488828983F0023523A3A3123B661A
:1035F300A30EAF832274F4120A8274F91210B6EA8E
:10360300FEEBFF90043CE07002A3E0601012368DE5
:1036130064027009EEFAEFFB121566806890046A83
:10362300E06E7003A3E06F705C74016960097A7ED9
:103633007B04124DEA704E7A007B029004B7E0F9E6
:103643001222CEEA7001EB703C90046D78081212DE
:10365300968510828511837808121287900473E08F
:10366300C0E074041212E0D0E0F074051212E074AA
:1036730001F074061212E07402124B9012137AE9ED
:10368300609212138074070239FD90043C12408546
:10369300E02274F7120A828A828B83A3AE82AF83FD
:1036A300E0F91213C28E828F83E0FA74EB6A60052D
:1036B30074E16A7002E4F01228F6750801780812C2
:1036C30010128E828F83E0F50878081210127900A9
:1036D30012343512103C12146A023D2774F6120A92
:1036E300829004BAE0701F7C0079017A007B00129B
:1036F300149AEA7001EB600E8A828B83E07002A356
:10370300E06003121410024786C082C083123B6A32
:10371300401079FF121494E9FA9026FEE493C39AB9
:10372300500479018002790002443974F0120A824C
:1037330074FF1210B6E9851082851183F08A0A8B13
:103743000B750900EA24081239168A0C8B0DAE0C8E
:10375300AF0D750801EE7001EF60030237F2850AC1
:1037630082850B83A3A3A3A3A3A312392F850A8264
:10377300850B831245DD1214888A0C8B0DAE0CAFBA
:103783000DEE7001EF700302390C8E828F83A3A3B9
:10379300A3A3E4F0A3F0E50A240BFAE50B124E040D
:1037A300C0E0122E63D0E0F0121554EE240CF58223
:1037B300EF124742750901EE2406F8EF123B79E058
:1037C300547FF0A3E054FC123D42E0540460030232
:1037D300387D9012C2E0F50A750B007407780A125F
:1037E30011BC8A828B83E0450AF0A3E0450BF0EE1F
:1037F3002406FAEF124AA4123EA474805CF50A74FC
:10380300035DF50B7407780A121269EE2404F50CB4
:10381300EF3400F50DEE2409122E5B85108285111D
:1038230083E0605F7402850E82850F8312393F2423
:103833000D122E91A2E2500F900458123D7A850C7E
:1038430082850D83124790E50A70030238DB747F8B
:103853005CFC74FC5DFD74FF250AF50A74FF3400FB
:10386300F50B7407780A1211BCE50A4CF8E50B4D09
:10387300F98A828B83124790805EE04480F0A3E054
:103883000237F1E50A7005750800804CEC5420609E
:10389300151219A48A0A747F550AF8745F28850CD7
:1038A30082850D83801BEC5410600E1219A48A0AC2
:1038B300740F550AF8740180E4850C82850D8374B6
:1038C30001F0A3E4F07404850E82850F83123B821A
:1038D3007001EB700312392274016509702E850C97
:1038E30082850D8312392FEEFAEFFB12148EE960F5
:1038F3001BEE240C122E66123C157001EB600312B2
:103903001A16EEFAEFFB121A16750800A9087401CD
:10391300024880F50EEB12500EE0F91214A0227A41
:10392300207B009004B7E0F91219DA22123EA88531
:103933000E82850F83E0F922A3A3A3A3123B66E0C3
:103943002274F4120A827508001214A08A0A8B0BDF
:10395300AE0AAF0BEE7001EF70030239F98E828F5E
:1039630083A3A3A3A3A3A3A3A3A3E0640660030267
:1039730039F91214B28E828F83A3A3A3A3A3A3A3A3
:10398300E05408F9E47001E960698E828F83123D87
:10399300377A007B00121482EA7001EB70559004B1
:1039A3006A123EA48E828F831245DD12216C7C0045
:1039B3007D007A007B0080258E828F83123D2C70E0
:1039C30004A3E064FF602C90046A123EA4121E5A02
:1039D300E9641A601E7C007D00EEFAEFFB1214828C
:1039E3008A088B09AE08AF09EE7001EF70CA79003F
:1039F300122172750801A908800312103C7F04028A
:103A03000D9D74F7120A828A828B83E5827002E528
:103A13008370099004BB80068A828B83A3A3123C24
:103A2300157001EB602C8A828B83A3A3A3A3A3A3AA
:103A3300A3E05408F9E47001E960DDEC7001ED6086
:103A4300158A828B83123A5C6C7003A3E06D70C895
:103A530080047A007B00023D27123A60221247530A
:103A6300E02274F2120A828A088B09890AECFEEDBD
:103A7300FF7A0E7B00121A10EA7001EB603EE48AB3
:103A8300828B83A3A3A3A3A3A3A3A3123AC2E50A8E
:103A9300123D42A3A3124FF38A828B83A3A3A3A352
:103AA300E4F0123AC2123D40124DE2EA240CF582D0
:103AB300EB1251E1123D41A3A3F0A3F0023523120F
:103AC3004FEB02524574F5120A82EAFEEBFF890AB4
:103AD3008C088D09EE7001EF605C7401650A701447
:103AE3007901121494E9FA902701E493C39A500FD1
:103AF3007911806C7404650A7036123B6A40F18E4A
:103B0300828F83A3A3A3A3A3A3A3A3A3E50A123B27
:103B130066124DDE8E828F83A3A3E4F0A3F090049C
:103B2300BBE07002A3E09004BB6024123D7A800ADC
:103B33007402650A60C979C18026E824020808E98D
:103B4300123B79123C4A7001E970EF8A828B83EE53
:103B5300F0A3EF123B827001EB700312392279005C
:103B6300024B8AF002502C7904121494E9FA90273C
:103B730000E493C39A223400F9E8FAE9023D49F0DC
:103B83007A207B009004B7E0F91222CEEA22C082A9
:103B9300C083E9FC79009004BB801D8A828B83A3D8
:103BA300A3A3A3A3A3A3A3A3E06C600574FF6C70FA
:103BB30001098A828B83A3A3123C157001EB70DB8E
:103BC30002443974F7120A828A828B83E582700277
:103BD300E58370099004BB80068A828B83A3A312BA
:103BE3003C157001EB60248A828B83A3A3A3A3A358
:103BF300A3A3A3A3E06970E1EC60148A828B83E042
:103C0300240D124CDFA2E240D080047A007B000234
:103C13003D271245E1EA22C082C0839004BB80069F
:103C23008A828B83A3A3123C157001EB60128A82F4
:103C33008B83A3A3A3A3A3A3A3A3E06970E280043C
:103C43007A007B00024439123F61E82274F1120AC0
:103C5300828A0A8B0B8C0C8D0D750800750900EA9E
:103C63007001EB602E9004BB80068E828F83A3A32A
:103C7300124FC3EE7001EF601AAC0CAD0DEEFAEF0C
:103C8300FB850A82850B83122357E9640170DB8E5F
:103C9300088F09AA08AB097F07020D9D74F7120A62
:103CA300829004BB123D7A7C007D008007E8FCE92A
:103CB300FD123D7AE87001E9603AE82402F582E9F1
:103CC300122E69EA687002EB6970E21245DD900416
:103CD300BB124FC3E86E7002E96F70099004BBEA30
:103CE300F0A3EB800EEAF8EBF98C828D83A3A3E8B3
:103CF300F0A3E9F0023D2774F7120A82EAFEEBFF14
:103D0300EE7001EF60161214AC123D4FEA7001EB36
:103D13006003121A16EEFAEFFB121A16023D27740D
:103D23001F12103C7F01020D9D1245E18A828B8395
:103D3300E064FF22123A60FCA3E0FD22A3A3A312D6
:103D43003D4622F08001FB8A828B83228E828F8301
:103D5300E0241C1229D1FAA3E0FB121A168E828FDB
:103D630083124FCDEE240C1247B01245E122EA2410
:103D73000BF582EB1247B3123F612274F0120A82F1
:103D830074FC1210B6EAFEEBFF121470E9600579B9
:103D930011023E9CEE2402F50EEF12500A124985E1
:103DA3006006EE24121251DEEE24131246EE700367
:103DB300741EF0EE2411F8EF1248A07019900EB0A3
:103DC300E0600D900454E0700D8E828F83E07006E6
:103DD300E488828983F0EE2414080808EF124AB0BD
:103DE300700F900449E088828983F0900449E004CD
:103DF300F0EE1248968E828F83E064017017122EC4
:103E030063123A5C6402700D850A82850B83E04479
:103E130040F0A3E0F0851082851183AC82AD83EE80
:103E2300FAEFFB1214CA8A088B09850E82850F8369
:103E3300123EA4EA7001EB605C8E828F83E0C0E0E7
:103E430074011212E0D0E0F074021212E0124FF784
:103E530074011212E085820C85830D780C12100E0A
:103E6300850A82850B83120E83EE240E1246EEF52D
:103E73000A780A12101274051212E0E0F91214C43F
:103E8300740512103CE9FE74106E700BAA08AB099E
:103E9300121A1680027E10EEF9740402488012474B
:103EA300B0123EA822E0023D3AC082C08374DE1203
:103EB30010B68A828B83A3A3A3A3123D7A740E1236
:103EC30012E0E8F0A3E9123F58740C1212E0123F1B
:103ED30051240DF582EB1246F1C0E0741A1212E080
:103EE300D0E0F0123D7174201212E0123F512415FC
:103EF300F582EB1246F1C0E074081212E0D0E0F054
:103F0300EA241C123D7474121212E012479074FFDB
:103F1300851082851183F074011212E074FFF0742E
:103F2300021212E074FFF09080F7120E7F740412F5
:103F330012E0AC82AD8374071212E0AA82AB831243
:103F4300139E740412103C79007422024436E8F084
:103F5300A3E9F0EA22123D46A3A3123F6122E0F84F
:103F6300A3E0F92274F0120A8274EE1210B67410F0
:103F73001212E01247458C088D09890B7422121224
:103F8300E0E0F50C74231212E0124FC374251212F1
:103F9300E0E0F50EA3E0F50F750A107A1E7B001220
:103FA3001A1074021212E0124FDC1212E0E07002D7
:103FB300A3E07003024069851082851183AA82AB56
:103FC3008379501246021212E012407FA3124FDC93
:103FD3001212E0E0240B1240707402F01212E0128D
:103FE300407F7402F01212E012474B124DE274024A
:103FF3001212E0124AB9E50BF074021212E0E02447
:104003000C124070E50CF074101212E012460B1201
:1040130012E0E0241C12407012474574081212E0AB
:10402300124FF7740A1212E0E50CF0850E82850F29
:1040330083C082C083740D1212E0AC82AD83D0833F
:10404300D0827403120FA7F974021212E0AA82AB92
:1040530083121476E964017005750A0080087402FE
:104063001212E0124FC9A90A741202488012407456
:1040730022F812407922A3E01252AD22124085A306
:10408300A3221249A402524574F0120A82EAFEEBFB
:10409300FF8C088D0974088E828F83123447E06089
:1040A3000874108E828F83A3F0EE24171246EE60FD
:1040B300098E828F83A3E02408F01246EB60057516
:1040C3000E0E8003750E008E828F83A3E0C0E0EE98
:1040D300240D122E66D0E0FAE02A250E8C828D8301
:1040E300F01246EB6013900455E0F91221DEE9FA71
:1040F300850882850983E02AF0850882850983E0A3
:10410300FAC3947540030241DF7B00121A108A0C34
:104113008B0DEA7001EB70030241E5EEFAEFFB123F
:1041230014D0EA850C82850D83124746EE2402F8EB
:104133001241EC1241FEF0EE240408081241ECA3F4
:10414300A31241FEA3A31247A81241F7F0EE2414D1
:10415300122E661241F7A3F0750808EE24161246D4
:10416300EE6010EE2418123EA1E50C2408124D91C6
:10417300750810EE24171246EE600DEE241A123E57
:10418300A1E50C2508124D91122E63124DB01210A9
:104193000AEE240D1246EEFC7D008E828F83A3E08F
:1041A300F8E50C28F8E50D3400F9E50E28FAE439B2
:1041B300124DA412103C1246EB6027EE240D12465A
:1041C300EEFD8E828F83A3E0FCAA0CAB0D79001267
:1041D30021E4E9600DAA0CAB0D121A16750C0075DB
:1041E3000D00AA0CAB0D024883EF124AB4850C8272
:1041F300850D8322124205A3A3A322124210124269
:104203000522E0850C82850D83A3A3A322A3A31219
:104213004866A32274F6120A828A828B83E0FC909A
:10422300045A1242A0740278081211BCE5084CFC2F
:10423300AD09EA241212429A740678081211BCE5F9
:10424300084CFCE5094DFDEA241112429A740978E1
:10425300081211BCE5094DFDEA241612429A740BAB
:1042630078081211BCE5094DFDEA241712429A742D
:104273000C78081211BCE5094DFD8A828B83A3A338
:10428300A3A3A3A31242A0740A78081211BCECFAE8
:10429300E5094DFB024786F582EB1247B3E0F508CB
:1042A3007509002274F4120A828A088B09ECFEED68
:1042B300FFE98E828F83F0124564C0E0EE24111271
:1042C3002E66D0E012455EC0E0EE2412122E66D0B8
:1042D300E012435CA882A9831245296010E50824F3
:1042E30008FAE5093400FBEE24131243618E828F32
:1042F30083A3A3A3A3A3A3A3A3E0601588828983B5
:10430300E0FAE5082AFAE5093400FBEE2415124326
:104313006188828983E0FA8A0AE508250A12451A28
:104323008C828D831248A62417122A328E828F83A1
:10433300E0C39A850882850983125237E0601785A6
:104343000882850983E024F2F012454285088285BC
:104353000983E0C39AF0023A00123B66A322124794
:10436300B0EAF0A3EB124866E02408F02274F412DA
:104373000A828A088B09EA1243E9F0EA1313543FCD
:104383001243F2A3A3A3F0EAC413131243E9A3A3B2
:10439300F0E48C828D83A3A3A3A3A3F08A0A8B0BDF
:1043A3007409780A121269E50A1243E0F0EC241842
:1043B300F582ED1251E18A0A8B0B740B780A121203
:1043C30069E50A1243DBF0740C7808121269E508F8
:1043D3001243DBA3F0023A001243E0A32254018C00
:1043E300828D8302524454038C828D83A3A322546F
:1043F3000F8C828D8322C082C08379009004541273
:104403004BADA3A3A3E0600FEC70268A828B83A33A
:10441300A3E0701D09801AEC60178A828B83A3A323
:10442300A3A3A3A3A3A3A3124F177003A3E06B70CB
:10443300E3800312103CD083D082020D2E74F1125C
:104443000A828A088B09890EECFEEDFF124564C0CF
:10445300E0EE2411122E66D0E012455EC0E0EE2499
:1044630012122E66D0E012435C85820A85830B12FA
:1044730045296010E5082408F8E5093400F9EE241D
:10448300131245318E828F83A3A3A3A3A3A3A3A354
:10449300E06017850A82850B83E0F8E50828F8E5D4
:1044A300093400F9EE2415124531EEFAEFFB12142C
:1044B300E2E9FA705D850A82850B83E0FB8B0CE5EC
:1044C30008250C12451A8E828F83A3A3A3A3A3A34B
:1044D300E070188C828D83124790E50EC39BC0E079
:1044E300EE2417122E66D0E0F08027124542850A8B
:1044F30082850B83E0FCE50EC39C24F2C39AFDEE98
:104503002417122E66EDF0AA08AB0979011221E4F3
:10451300E9FAEAF9023C9AF8E5093400F9EE241DB8
:10452300FCEF3400FD22740812523BA3E022124731
:10453300B0E8F0A3E9F0850A82850B8302436BE8B8
:10454300240EF8E93400F98C828D83E8F0A3E9F0B6
:10455300900455E0F91221DEE9FA22124888023468
:10456300308A828B831245E11214DC850882850927
:1045730083A3A31245A3E0F9EA8E828F83A3A3A3A7
:10458300A3A3A3A3A3A31245AF1245A3A3A3E0F937
:10459300EAF8EE240B1247B0E81245AFA3A3E022DA
:1045A300E0FA850882850983A3A3A322F0A3E91275
:1045B300488C22C082C0837AC07B0479E212213CFA
:1045C3007AC07B04024439C082C08390045D1245E3
:1045D300DD024439850E82850F831245E122E0FA1C
:1045E300A3E0FB22C082C08374FE1210B685108242
:1045F300851183AA82AB83794B1246020244361299
:10460300213C8510828511831245E1740222C08208
:10461300C083794A12213C02443974F6120A82900B
:1046230004C8E0FE04F0EEF91214A0EA7001EB7086
:10463300EEEE60EBF902478674F0120A82EAFEEBB3
:10464300FF8C0E8D0F890874101212E0E0F50D74C3
:10465300111212E0E0F50C75090012159C8A0A8B01
:104663000BA80AA90BE87001E97013E50C7058A9AF
:1046730008AC0EAD0FEEFAEFFB1215A28067E5084A
:10468300601AE82402F582E91246F1FAE5082AFAEB
:10469300E4340013EA13F070037401F0E50C604591
:1046A300E50D701088828983E0600214F0E49004C1
:1046B300CFF080319004CFE004F0FA9012C3E06AA7
:1046C30070237509018003E4601BE5096017121468
:1046D300FAEA6E7002EB6F700CEEFAEFFB790112DF
:1046E30013BC1246F5024883EE2411F582EF1248FB
:1046F30078227A017B009004B7E0F9121AB822C03D
:1047030082C08374016A7001EB70077A0112392445
:1047130080149012BA124745EA7001EB6005122823
:10472300E580031246F5024439C082C0839012BC6F
:10473300124745024439C082C0839012BE80F112F1
:1047430047B3EAF0A3EBF02212474F22124753225A
:1047530012475722E0F8A3E0F583888222A2F0E40F
:1047630092E012476E7952122142228510828511FE
:1047730083F0AA82AB832212476E7942122142222E
:1047830012103C7F02020D9D125027A3A3E8F0A351
:10479300E9F022F012479B22EEFAEFFB9004B7E018
:1047A300F91219B622F0EE24131247B022F582EF64
:1047B3003400F58322A3A3A3A3A3A3A3A3A374FEFB
:1047C300F0A374FFF02274F4120A828A088B097A28
:1047D300007B041246F9124857124790740990045B
:1047E3006CF01214EE8A0A8B0BAC0AAD0BE50824AD
:1047F30013F582E509122E691245DD124DEA6401B3
:10480300704F1231267001EF604774028E828F83DE
:10481300F0E508241DF8E5091252A91245DD8A8244
:104823008B83A3124BB2E0FBEC8E828F83A3A3F0A6
:10483300A3EB124861F8A3E0F5838882A3A3A31234
:10484300352E12486AFAA3E0FB794A122142124735
:104853009B023A0090043E123F619012BE2212481E
:1048630066E022F0025018A3F0E5082415F582E56E
:1048730009124878223400F583E022740212103CB6
:104883007F08020D9D12488C22F0850882850983DA
:10489300025246240FF50AEF3400F50B22124AB4F4
:1048A300640122E8F0A3E9F0EE2274F4120A8274A0
:1048B300F31210B6EAFEEBFF7C0D7D007900851044
:1048C30082851183AA82AB83121998EE124993F859
:1048D30054206008740C1212E07401F0E8548060F4
:1048E30008740B1212E07401F0E85440600A740A71
:1048F3001212E07401F0800A740A1212E0E06401FB
:104903007005EE24138003EE2415123EA1740212E7
:1049130012E0AA82AB831220EEEE240B122E6D124C
:104923004A32124790740A1212E0E06401703412A2
:104933004978703C1214FA8A0A8B0BA80AA90B85D2
:104943000882850983E0687003A3E069702212146A
:10495300EEEAFCEBFD74021212E0AA82AB83124D65
:10496300EA600D851082851183AA82AB831213B688
:10497300740D0239FD8E828F83A3A3A3A3A3A3A3E4
:10498300A3A312498922E0FAA3E0FB12154EE92200
:10499300241DF582EF1247B31249A0E0221249A465
:1049A30022124757A32274F6120A8274F31210B626
:1049B3008A088B09ECFEEDFF7C0D7D0079008510E4
:1049C30082851183AA82AB83125162A3A3A3A3A3FB
:1049D300A3A3A3A3124A321248A6124993FAA2E54B
:1049E3005008740B1212E07401F0EAA2E750087445
:1049F3000A1212E07401F0EAA2E6EE5004241380D6
:104A0300022415123EA174021212E0AA82AB831291
:104A130020EE850882850983A3A3E0C0E0740C120D
:104A230012E0D0E0124B901213B0740D02478312C0
:104A33003F618510828511832274F7120A8274E123
:104A43001210B6EAFEEBFF8E828F83124BBBEA2471
:104A530006F8EB124AB0A2E0504154FEF0A3E01274
:104A63004AC08A828B83124AB9124DABE0241CFAE6
:104A7300A3E0124AA41245DD1214E8E9701D741D67
:104A83001212E0123A5C640470118510828511835E
:104A9300AC82AD83EEFAEFFB121530023D22FAE54C
:104AA30009124AA8223400023D49F8E509124AB422
:104AB300221252ADE022E0241B12407422124AC893
:104AC300AC82AD8322F0024A35E9FA790074046AB4
:104AD300600A740A6A600574036A700109020D2E84
:104AE30074F6120A8274208A828B83F07401A3A362
:104AF300F012136EEA7001EB600774018A828B83F4
:104B0300F0024786C082C08374019004BDF0E9A21D
:104B1300E350037403F0E9A2E15004E0D2E2F002AF
:104B2300443974F6120A8279007C008A088B09786A
:104B330008120CD6F8FF07584B564B564B564B569C
:104B43004B4F4B534B584B4C4B0C80097C0480050B
:104B53000C80F67C089004BDE05C6003098003ECE4
:104B630060010902478674F6120A828A828B83E007
:104B7300700EA3123C157001EB60051222C2800473
:104B83007A007B000247867F03020D9DE4124B945B
:104B930022124B9822F085108285118302477512E9
:104BA3003EA88E828F83A3025242124BB2A322E00D
:104BB300FC8A828B83A3A322123F61E8FAE9FB22DA
:104BC30074F0120A8274F31210B674031212E01214
:104BD3004CC08A0E8B0F890B741D1212E0E0F50A8C
:104BE3007E01EE1212E0740AF0E97007E50AC3339E
:104BF300240AF0851082851183AA82AB83121542A1
:104C03008A088B09EA7001EB7003024CB9124FBAA0
:104C13007409124DD1450A124DC81212E0124DBE4D
:104C2300E50B70307A008026EAC333F8E433F97475
:104C33001E1212E0E028F8A3E039F9888289831272
:104C43004CD588828983123528A30EAF830AEAC321
:104C5300950A40D4E5082417F582E509124CCBE503
:104C630008241AF582E50912474274051212E0ACD2
:104C730082AD83AA0EAB0F1222B0E96021E50812C0
:104C83004CC6E509124FFD74051212E0A882A983F0
:104C9300E5082418F582E509122E69124790850864
:104CA30082850983A3A3E50EF0A3E50FF0AA08AB61
:104CB30009121368E9FEEEF9740D024880ECF0A3C3
:104CC300EDF0222416F582221247B37401F0121478
:104CD300EE2212352EF0A3AE82AF8322FEA3E03480
:104CE30000FF8E828F83E02274F0120A8274FE1218
:104CF30010B685108285118312474589098C0E8D64
:104D03000F74121212E0E0F508900E22E07002A375
:104D1300E06078E508C333FEE433FF740E2EFAE453
:104D23003FFB1219AA8A0C8B0DEA7001EB605C74CD
:104D3300D48A828B83124DB9F8A3124DAB12478EDE
:104D43008A828B83A3A3A3A3E509F0AC0EAD0FEA7C
:104D53002405FAEB124D94E50C240DF582E50D12B2
:104D63002E69E508F074131212E0124DB012100A06
:104D7300EEFCEFFDE50C240E124D9B12103CAA0C29
:104D8300AB0D900E2212474B12235702487EFAE5D1
:104D93000D3400FB1220EE22FAE50D3400124DA46F
:104DA30022FB12198C740322E0F9023D4A123404E7
:104DB300750A00780822124AC8E022124FB0124D39
:104DC300EF3400FF22F0A3AE82AF837403228E82FE
:104DD3008F83F0A3E50BC43354E022A3A3A3A3E57D
:104DE30008F0A3E509F0221220E8E9221220EEEEF2
:104DF3002408FEEF223400FF851082851183024AC6
:104E0300C3124AA8E02274F6120A82EAFEEBFF906C
:104E130004BE801388828983E06E7003A3E06F6011
:104E23003B88828983A3A3123C4A7001E970E57A27
:104E3300047B00121A108A088B09A808A909E870D4
:104E430001E9601888828983124FF79004BE124EDD
:104E530062A3A31247459004BE12479002478612ED
:104E630045E102501874F4120A827E009004BE8059
:104E7300070E88828983A3A3123C4A7001E970F16B
:104E8300EEC333FAE433FB124F0E7001EB60767F0F
:104E9300009004BE802288828983123EA4EFC3332C
:104EA300FAE433FBE5082AF582E5093BF583124C66
:104EB300C00F88828983A3A3123C4A7001E970D68C
:104EC3009004B2124F177003A3E06B7808701612A8
:104ED300100EEEF50A780A1210127C7E7D0479001A
:104EE300121560801412100EEEF50A780A121012D1
:104EF3007C7E7D04790012155A740312103CAA08B3
:104F0300AB09121A16121380023A00121A108A08F9
:104F13008B09EA221245E190045DE06A22C082C057
:104F23008380128A828B83A3A3123D7A9004BE12DC
:104F33004790121A169004BE123C157001EB70E3F1
:104F430002443974F6120A8290046A124FC3900421
:104F5300C91231371247907AC97B04795012214222
:104F63009004C9124FAC1215A89004C9124FC390F4
:104F73000E24E07002A3E0602D7A067B001219AACA
:104F8300EA7001EB602074D58A828B83F0E4A3A3DB
:104F9300F074018A828B83123D3F124FF3900E24EB
:104FA30012474B122357024786124FB022E0FCA34D
:104FB300E0FDEEFAEFFB22EA240BF582EB1247B396
:104FC300E0FEA3E0FF22124FCD22E0FAA3E0FB12A2
:104FD3001A1622123A600245E2EAF0A3EBF07402D9
:104FE30022123F6174FF6822A3123D46A3A3A322AA
:104FF300A3A3A3A3EEF0A3EFF0221247B37401F02F
:105003002208E93400F92212500E223400F50F85EC
:105013000E82F583228882898322850E82850F83FF
:1050230012502722E0F8A3E0F98E828F8322F0EE5C
:10503300240F1247B02274F7120A827E008008EE12
:105043001251A61215900E902703E493FAEEC39A19
:1050530040ED023D2774F7120A82EAFEEBFF780067
:10506300790080031251361250C75042E8FAE9FB27
:10507300EA75F017A4FA85F00875F017EBA4250874
:105083001250B86E7003A3E06F70D98A828B83A32A
:10509300A3A3A3A3A3A3A3A3A3E06C7003A3E06DA3
:1050A300601074FF6C700374FF6D70B880047A0035
:1050B3007B00023D27FBEA2499FAEB3411FB8A8239
:1050C3008B83E022902703E493FAC3E89AE99400E0
:1050D3002274F6120A827CFF7DFF7AFE7BFF125157
:1050E300D17001E970467A007B008032EAFCEBFD67
:1050F300EC75F017A4FCAEF075F017EDA42EFDECE3
:105103002499FCED3411FDEC240FF582ED1246F1E8
:105113007004ECF8EDF9EA24010AEB3400FB902764
:1051230003E493FCC3EA9CEB940040C0E8FAE9FB78
:10513300024786E8240102500474F7120A82EAFE49
:10514300EBFFEE7001EF600E12515C1247C18E82CD
:105153008F83A31247B8023D277C177D0079001285
:10516300199802502C74F7120A82EAFEEBFF7508B5
:10517300008021E5081251A68A828B83A3A3A3A3EF
:10518300A3A3A3A3A3A3E06E7003A3E06F60031222
:1051930015900508902703E493FAE508C39A40D3D2
:1051A300023D2775F017A42499FAE5F03411FB2288
:1051B30074F6120A821251D17001E9600AE8240DD3
:1051C300FAE93400FB80047A007B0002478612155B
:1051D300848A088B09A808A909E822F582EF1247F7
:1051E300B3E4F02274F0120A828A0E8B0F8C0A8DBC
:1051F3000B890812522A7001EF602912515CE50EE7
:10520300F0A3E50F125237A3A3A3A3E50AF0A3E586
:105213000B125031E50870027401F0EE240E122EC9
:105223006612524B02488312158A8A0C8B0DAE0C00
:10523300AF0DEE2212523B22F08E828F838002A3A7
:10524300A3A3A3A3A3A3A3227401F0EE240D1247E7
:10525300B07402F02274F5120A828A088B09ECFEFC
:10526300EDFF750A00800DEE6C7002EF6D600312A6
:105273001590050A902703E493FAE50AC39A50218F
:10528300E50A1251A6EA240A1252A7123EA4E5081F
:105293006C7003E5096D70CF88828983124FF780A4
:1052A300D1024B8AF8EB1252AD223400F9025018A6
:1052B300C082C08374F81210B6851082851183AC46
:1052C30082AD837583807582C67408120FA785101B
:1052D30082851183AC82AD83124DEA640170047937
:1052E30000800279017408024436F582EB126F3AAA
:1052F300A2E222E0F508750900750A00750B002289
:10530300740912103C7F04020D9D126F3AA2E5222C
:105313001279E6E822EE2412FAEF3400FB12171C8E
:10532300E9227905121728740222E0FAA3E0F9EAC8
:1053330022740212103C7F06020D9D121812900572
:10534300471279E67A147B002234000265E9E024EF
:10535300FFF8A3E034FFF9228882898322125C0CD0
:1053630012103C025395125D39E4F022E08E828FD5
:105373008312537822F012537D22EE24FF1EEF3462
:10538300FFFF22A3A3E0FCA3E0FD22EEFAEFFB1252
:1053930018007F08020D9D7AD07B041219CE740287
:1053A30022A2AFE492E0FAC2AF9004D7E004F0EA9D
:1053B300A2E092AF22AA82AB831220EE8E828F8369
:1053C300A3A31259BCE02212103C025E6BEE240E22
:1053D300F582EF125D3922EE240DF582EF126F3A5A
:1053E300640122E0FEA3E0FFEE227F07020D9DFA97
:1053F300EF3400FB79E11217A62212540122125F47
:105403006CA3A3A3A3A322EE2412FCEF3400FD227A
:10541300C082C083800A7AD07B041219C81219B0E3
:105423009004D0E07002A3E070EC9004D2E070022C
:10543300A3E0600C7AD27B041219C81219B080EA77
:105443009004D0E4F0A3F09004D6F09004D7F09049
:1054530004D88003F0A3E0F0025AE374F4120A8242
:105463008908E924C8F582E43426F583E493FEFA37
:105473007B001219AAEA7001EB600F126D24E48A13
:10548300828B83A3A3A3A3F080297A027B00121942
:10549300AAEA7001EB6018E50824A7F582E4342634
:1054A300F583E4938A828B83F0741AA31257E17A0B
:1054B300007B00025308C008740629FBEAA2E050EF
:1054C3001EEB75F00A84AAF0EA6014740A2BC39ADF
:1054D300FBEAC394054004740A2BFB740B2BFBE912
:1054E300C394134004781480027806E82BFB8B08DE
:1054F30074092508F8E43400F97A0A7B0012082AB3
:10550300E8F9D008020D2EC082C0839004F4E05461
:1055130002600A12217EE9600479018002790002A7
:105523005AE3C082C0839004F4E0540260199004EB
:10553300D6E0700F9004D9E07002A3E06009125521
:105543004F5004790180027900025AE39004D9E0B4
:1055530024101259D4A2E722C082C0839004D8E059
:10556300C0E09080EFE0FCD0E0C39C50051219AA84
:1055730080047A007B00025AE3C082C0831219B010
:10558300025AE374F6120A82EAFEEBFF8E828F83DD
:10559300A3A3A3A3A3E0120E1800037B56A855FAF6
:1055A300557B560B56900527E0640F60131216E6E1
:1055B300E9700DEEFAEFFB9012791259B8122357E6
:1055C30090054FE08E828F83A3A3A3A3A3A3F074BC
:1055D300148E828F83F0EEFCEFFD7AD27B041219D6
:1055E300C2A2AFE492E0FAC2AF9004D81253AF79EB
:1055F300201216D40261491216E0E96007740D12F5
:10560300569080F0741580C98E828F83A3A3A3A3C1
:10561300E060658E828F83A3A3A3A314F0EE24021C
:10562300EF34000A0AFB8A828B83125313FCE9FDD1
:105633008C828D83E0F508EE2405F8EF125685E59C
:10564300081272F1A882A9838A828B83126D34E5D2
:105653000860258E828F83A3A3A3A3A3E0C3940A28
:105663005016EE2405125689240A8E828F83F08801
:10567300828983E0040255D8EEFAEFFB1219B002D7
:1056830055F7126BAC22F8EF126BACE0228E828FCF
:1056930083125A5012217822C082C0839004DBE027
:1056A3007002A3E0600B9004DB1259B812235780F9
:1056B300027900025AE374F7120A82EAFEEBFFEE64
:1056C300240D1253D37401F0EE242F125722C0E09D
:1056D3001253D0D0E0F0EE2430125722C0E0EE2473
:1056E300121253D3D0E0126BCFC0E0EE2413125347
:1056F300D3D0E0F0EE242B1253D3120E83EE2422E8
:10570300FCEF3400FDEE242D125722F9125D0A122C
:10571300103CE97007EEFAEFFB12161A025E6BF506
:1057230082EF126F3A22C082C0831216E6E9600448
:10573300792080027901025AE3C082C083EA1268A9
:105743005EE0D2E002545AC082C0831268571253FB
:10575300E070111257D6400C8A828B83A3E0F912B2
:1057630016DA806CEA126846EB125725A2E650124D
:105773008A828B83A3E0F990127B1259B8122357C4
:10578300804E1268571253E070091257D6500474B2
:105793003080368A828B83A3E0641B70047422807A
:1057A300288A828B83A3E0700F126857125725242F
:1057B300BDF582E43426800D12685712572524A7BD
:1057C300F582E43426F583E4938A828B831257E1CE
:1057D300025AE3EA126846EB126F3AA2E322F09010
:1057E30004F1E0F91219B622C082C0839004D9E013
:1057F3007002A3E06043E970061258AEE4801A74A5
:105803001B6970389004D9E0240DFAA3E012534CBD
:10581300E0640570E41258AEE91258B71216089006
:1058230004D9E0240E1255555003126FE49004D9A5
:10583300E4F0A3F079101216D4025AE374E9697004
:10584300499004D9126B9AE09004D96036E0240E93
:105853001818181258AAA2E29004D9E0400F241194
:105863000808081258AA14F012209A80CC240F08B2
:105873001258AAC2E71258B79012771259B81223D6
:1058830057809C1258B174E9808F741C697086909C
:1058930004D9125E129012811259B8122357900440
:1058A300D9E4F0A3F080921259D5229004D9E012E2
:1058B30059BDA322F09004D9125E162274F4120A81
:1058C30082750A00750B00A2AFE492E0FEC2AF90AE
:1058D30004D9E07002A3E06008EEA2E092AF02599F
:1058E3009890127F1259B8122357E94410FA900482
:1058F300D0801285080A85090BE50824FBF582E5AB
:105903000934FFF5831259ABE5087002E50960C954
:105913001259A05A6A70DC780A12100EAC08AD094D
:1059230012539A12103C9004D9E508F0A3E509F04C
:1059330012554F40639004D7E014F0EEA2E092AF0B
:105943009004D9E0240E1818A3E03400F9E8FEE926
:10595300FF8E828F83E0FA1259C5F91215CCE990B4
:1059630004D4F0A3E4126873E0A2E750189004D9BA
:10597300E024121259B3121F9E9004D9E02413128B
:1059830059B3121F929004D91259CDA2E1B3E492F4
:10599300E0F91220820253089004D6809BE5081296
:1059A3006926E509126F3A22E0F508A3E0F509221A
:1059B3001259D4F9221259BC22E0F8A3E0F58388E6
:1059C30082229004D9126098E022E0240F1259D465
:1059D30022F8126BA6E02274F7120A82EAFEEBFFAA
:1059E30012170AEE126846EF1257DB400A1253DA17
:1059F30070059080ED80039080EEE0F9EEFCEFFD02
:105A03007AD07B041219D4E9602FEEFAEFFB9012DF
:105A13007D1259B8122357EE240EF582EF1252F07D
:105A230040081253A41216148014EEFAEFFB9012DE
:105A3300751259B8122357800574F1125A44025E45
:105A43006B8E828F83A3125A5012160822F0EEFA3D
:105A5300EFFB22C082C083121614025AE374F712BA
:105A63000A82EAFEEBFF7508009004F4E05402702A
:105A73000EEE242FF582EF1252F050037508E890D2
:105A830004F4E05460700DEE242F125722A2E1506B
:105A9300037508E88E828F83A3A3A3A3E0C3947541
:105AA30040037508E8EE242D125722701AEE242ABB
:105AB30012572270127508F512170AA908EEFAEFA9
:105AC300FB1216DA025E6BE50870ED1215F680F430
:105AD300C082C083740D8A828B83F0122178800088
:105AE300D083D082020D2EC082C083E48A828B834E
:105AF300F0A3F0EA242F1252ED40189004D7E0C02F
:105B0300E09080EDE0FCD0E0C39C401879F11216E0
